:1020000000800020F9210000E1210000E121000012
:1020100000000000000000000000000000000000C0
:10202000000000000000000000000000E1210000AE
:102030000000000000000000E12100004D2200002F
:10204000E1210000E1210000E1210000E121000088
:10205000E1210000E1210000E1210000E521000074
:10206000E121000055210000E1210000E1210000F4
:10207000E1210000E1210000E1210000E121000058
:10208000E1210000E1210000E1210000E121000048
:10209000452C0000E1210000E1210000E1210000C9
:1020A000E1210000E1210000E1210000E121000028
:1020B0000000000010B5064C2378002B07D1054B1B
:1020C000002B02D0044800E000BF0123237010BDA4
:1020D0005001002000000000C8530000044B10B560
:1020E000002B03D00349044800E000BF10BDC046E8
:1020F0000000000054010020C853000070B5FA260B
:102100000024B6000E4B3000E15802F0ABF9050098
:102110000C4B0200E158082000F0BEFC280002F041
:102120002FFD094A094B02F089FA02F0F3FC00F096
:10213000CBF80434082000F09BFC202CE2D170BDC9
:102140002000002000000020CDCCCCCCCCCCF43F33
:102150007047000010B5024800F0E6FE10BDC04612
:102160006C01002013B5114C1149200000F036FB22
:102170001049114800F032FB1049114800F02EFBC5
:102180001049114800F02AFB1049114800F026FBC5
:102190001049114800F022FB012303222100009284
:1021A000019300220D4800F055FE13BD6804002085
:1021B00000080042000C00426C04002000100042A5
:1021C0007004002000140042740400200018004233
:1021D00078040020001C00427C0400206C010020D8
:1021E000FEE70000034B10B51B68002B00D098479A
:1021F00010BDC046800400200F4A1048110010B5E1
:102200000F4B824202D0934209D11300824209D17E
:1022100000F07EF800F082FFFEE710CB10C1814293
:10222000FBD3F3E7074A8B42F2D00021064B9A42D8
:10223000EED202C2FBE7C0460000002050010020A1
:10224000CC53000050010020A00A002010B500F07F
:102250005CF8002801D100F04DF810BD014B18606A
:102260007047C04680040020F7B513480122844619
:102270001249134C8E68636805689B0E13400192E7
:1022800088686268019F920E3A4067463F689342B1
:102290000ED1BD420CD186420AD35B19FA2548689B
:1022A000AD00861B07486B437043000DC018FEBD90
:1022B0003D0013000600E3E78404002010E000E086
:1022C00000ED00E05555000070B5041E11D0FFF779
:1022D000CBFFFA260500B60000F016F8FFF7C4FFA2
:1022E000401BB042F8D3FA23013C9B00ED18002CB0
:1022F000F4D170BD10B5034A13680133136000F0C8
:1023000033FA10BD8404002070470020704700009D
:102310001E2270B546484749436893431C3A13430D
:10232000436008238C6923438B61434C434B9C825D
:102330009C8A14439C82DC681442FCD00124404AED
:1023400014701578254203D055786DB2002DF8DB56
:1023500001249460547864B2002CFBDB394C546047
:10236000547864B2002CFBDB8224E401548054785E
:1023700064B2002CFBDB02249C840E34DD68254211
:10238000FCD0314CDC621024DD682542FCD09D8CF1
:102390002E4C2C439C841024DD682542FCD0022462
:1023A0009D8C80262C439C844024DD683542FCD0E3
:1023B000DD682542F9D01024DD682542FCD00024D8
:1023C0009460547864B2002CFBDB214C5460547848
:1023D00064B2002CFBDB1C6A1E4D2C4080251C6265
:1023E0001C6AAC431C62032393601B4B53605378FD
:1023F0005BB2002BFBDB0023FF240B72174A4B72EE
:102400008B72CB72164B1A60164B174A1B681168F9
:102410009A065B01C90E2340520F12020B4313436D
:10242000124A1385802342681343436070BDC0463F
:1024300000400041000400400C060000000800407D
:10244000000C004001050100B905FF7D040A0000F1
:1024500000070300FFFCFFFF03060100006CDC0225
:102460004000002024608000206080000040004286
:10247000FA212E4B10B51868890001F069FF8023FE
:1024800001385B0498424FD229492A4A4860C0204B
:10249000136A00061B021B0A0343136200238B60AE
:1024A00007330B608021136A09061B021B0A0B43CA
:1024B0001362FC22204B196A0A431A62FF22196A2E
:1024C00012020A431A62A022196AD2020A431A624D
:1024D0001A4B1C005A7852B2002AFBDB184A5A8069
:1024E000184B1A00597EC9090129FBD0C82189005F
:1024F00099800521D970537EDB09012BFBD0C023C5
:1025000000205B011361907000F022F863785BB2E9
:10251000002BFBDB0C4B0D4A6380D379DB09012BCD
:10252000FBD04123537010BDFEE7C04640000020A1
:1025300010E000E000ED00E000040040000C00406E
:102540001E400000004000422140000000480042C0
:102550001F4900B50B004A7ED209012AFBD0013881
:102560000A282FD801F0EAFE1B2E2E2E2E2E062E24
:102570002E2411001A6917490A400F211A615A784E
:102580008A43110001220A4310E01A6911490A40E6
:102590000F211A615A788A4311000322F3E71A695E
:1025A0000C490A400F211A615A788A435A7000BDBB
:1025B0001A6908490A400F211A615A788A431100A2
:1025C0000222E0E7F022196912050A43F3E7C04648
:1025D00000400042FFFFFFF0182310B508245843C5
:1025E000134A13181C57013412D001245B68825619
:1025F0009C4003290CD808000E49D2015218D31868
:10260000403301F09BFE0210060B0221197054604A
:1026100010BD0621197054609461F9E70621197004
:1026200054605461F4E7422119709460F0E7C046A9
:102630008C4E0000004400411823F0B50824584394
:10264000114A13181C5701341BD0012635005F684E
:102650008356BD400D4ADB019A18906805420BD1A4
:102660000C00601E8441D219403210783440033689
:10267000A400B04320431070044A9B18002901D1E4
:102680005D61F0BD9D61FCE78C4E0000004400419F
:10269000182370B5082643432A4AD518AE5734008C
:1026A000013607D0072907DC00291DDA01314C4229
:1026B0004C416442200070BD0B00083BDBB200249B
:1026C000032BF7D8092903D12100FFF785FFF1E794
:1026D0000A2904D10839FFF77FFF0024EAE7002424
:1026E0000B29E7D10A39F0E76C68012520009B56D9
:1026F000C9B262082840DB012C4211D012480E35C5
:102700001B189A1830321078090128400143C9B2C9
:10271000117041221B19403319780A431A70DCE703
:102720000F26094D5B199A18303215781B19B543DD
:102730002943117041224033197804000A431A706A
:10274000B8E7C0468C4E000000440041014B1860C1
:102750007047C046440000200122024B52421A60DA
:102760007047C04644000020164A10B51368591C33
:1027700027D0013B1360002B23D172B68122124B6C
:1027800092000433934213D3104A01211000147DA8
:102790000C42FCD02021148BFF319B085B002143AD
:1027A0001183D3610A4B13800123027D1A42FCD0AE
:1027B000BFF34F8F074B084ADA60BFF34F8FC04615
:1027C000FDE710BD44000020002000000040004153
:1027D00002A5FFFF00ED00E00400FA05016070476C
:1027E0009446F0B505AC25789C1E621E9441624665
:1027F00006689207376824063A432243072432606A
:1028000000682140AD01002442682943022B00D01A
:102810005C030A4322434260F0BD30B5C025036823
:10282000AD031C6812052A402243C0240904A402F7
:1028300021400A431A6003685A6814435C6030BD43
:102840000123026811680B43136003681A68D207FA
:10285000FCD4DA69D207F9D4704702230268116800
:102860000B4313600268D3699B07FCD4704703686D
:102870001A7ED20702D41A7E9207FCD57047002236
:1028800003685A8370470368187E4007C00F70477B
:102890000368187EC0097047802302685B42117E7E
:1028A0000B43137670470368588B8007C00F70473F
:1028B00002230268518B0B43538370470368187ED1
:1028C000C007C00F70470368188DC0B27047036817
:1028D0001A7ED207FCD589B20120198570470122E2
:1028E00003689A757047012203681A7570470000E3
:1028F0000368104A934213D00F4A934212D00F4AF2
:10290000934211D00E4A934210D00E4A93420FD0F8
:1029100001200D4A4042934201D1063040B2704737
:102920000020FBE70120F9E70220F7E70320F5E7A5
:102930000420F3E700080042000C004200100042AF
:102940000014004200180042001C0042F8B5FFF7D6
:10295000CFFF00282CDB1D4BC0001818052304797D
:10296000C3560320FF221840C0008240C021D2433A
:102970008140002B1DDB1F2501201D40C026A840E3
:10298000134D7600A851C0269B089B005B19B6002A
:102990009F593A401143995128603F232340802496
:1029A000E4011C430B4B5C805A7852B2002AFBDBDB
:1029B000F8BD0F200340083B07489B089B001B18ED
:1029C000D86902401143D961E7E7C046945200003C
:1029D00000E100E0000C004000ED00E0F8B504006C
:1029E0000F0016001D00FFF7B1FF2000FFF728FFC2
:1029F0001C21BB000B4071072268090C0B431360BC
:102A0000842322689375012F1AD11021012E00D042
:102A100008390C4B69431868C00001F099FC072283
:102A2000216802408B895203DB04DB0C13438B814A
:102A3000226803049089DB0C400B4003184390810B
:102A4000F8BDC046400000200221084B1A888A4386
:102A50001A80DA7BD209FCD101321A80DA7BD209E2
:102A6000FCD11A88D207FCD47047C046003400421B
:102A7000074B10B51B780400002B08D0FFF7E4FFCC
:102A800000212000FFF7D8FD0022024B1A7010BD74
:102A900088040020A0040020F7B504000E1E019257
:102AA00002D1FFF7E5FFF7BD8023554A5B03554D83
:102AB000D367BFF34F8FBFF36F8FC0225200AB506D
:102AC000514B1A78002A23D0504B1B78002B31D160
:102AD0004F4B3100186801F03BFC8022431E52022C
:102AE0000093944600230427009A624529D30100ED
:102AF0005A1CD140013900911900B943C9B20329C8
:102B000002D0D2B2062A01D10233DAB21300EBE7C7
:102B10000122C5211A7089006B58FE3293431A00B6
:102B2000402313436B503B4A3B4B5A805A78D2099F
:102B3000FCD1C9E7394B1868A042C9D0FFF798FF0C
:102B4000C6E7013B0027092B02D8354A5B009F5A94
:102B5000019B002B4FD0FA2173438900580001F0EC
:102B6000F7FB002302002F492F4E0A604B60FFF74E
:102B70006BFF33883B4320271F433780F37BDB0900
:102B8000FCD16B461B883383F17BC909FCD118202B
:102B9000264F6043BC46264B264FC356DB019C4460
:102BA00062463A60244A254F9B183B600127204B20
:102BB0001A1853683A009A40214B1A601023727B0E
:102BC00013437373154B1A68A24209D020001C608E
:102BD000FFF732FD39002000FFF7FEFC0B4B1F70A2
:102BE0000223328813433380F37BDB09FCD180233B
:102BF0005B032B6057E701225242D317B3E7C0466D
:102C000004E100E000E100E088040020A0040020CE
:102C10004C0000201C400000000C00404800002038
:102C2000C452000098040020003400421C440041BB
:102C30008C4E0000940400201444004190040020B5
:102C40008C040020154B70B5186859680500144CA9
:102C50000D4319D0134A2168126811601868596829
:102C6000002902DC0AD1002808D01868596801241C
:102C70006442E517001969411860596010230A4A37
:102C8000917B0B43937370BDFFF7DEFE074B226809
:102C90001B681A60064B1D70F5E7C04698040020BB
:102CA0008C04002094040020003400429004002092
:102CB000A00400200120704710B50368014A1B6A78
:102CC000984710BD130400000300FC33D96F9A6FBE
:102CD000914203D0DB6FC018007D70470120404255
:102CE000FBE710B504000069FFF7AAFD22000023EE
:102CF000FC329367D3679E229200A4186366A36692
:102D000010BDF0231B011940802306209B0099422F
:102D10000AD00133FF330130994205D080230020CF
:102D20005B00994200D1053070470F200140002020
:102D3000012903D00239481E8141481C7047000018
:102D4000B923F0B5182785B002919B000400C05C40
:102D50003B0008214343324E1500F3185956FFF744
:102D600097FC304B0821E05C3B004343F318595675
:102D7000FFF78EFC2C4BE25C0393022A09D111333E
:102D8000E05CFF2805D008214743F7197956FFF783
:102D90007FFCBA27BF00E05DFF2819D00121FFF7B3
:102DA0001BFC1822E35D21495A43B356B618DB01D8
:102DB0005818BB21890060501D4901225B18BC21B5
:102DC0008900635071688A40BD21890062501A6091
:102DD0000122029B11002069FFF700FE290020005C
:102DE000FFF78FFF290006002000FFF79EFFF0226B
:102DF0001540303D6A4255410300310020690122EF
:102E00000095FFF7EDFC0B4B2069E25C039BE15C56
:102E1000FFF703FD2069FFF720FD05B0F0BDC046B8
:102E20008C4E0000E5020000E7020000184400415B
:102E300014440041E6020000AF2210B50400002156
:102E4000520001F02CFF23000022FC3320005A66C0
:102E50009A6610BDF7B51D0008AB1B7804000093FF
:102E600009AB1B781600019300234360FA239B00F3
:102E70008360104B0F00083303601430FFF7DCFF52
:102E800020007D30FF30FFF7D7FFB9239B0027617B
:102E9000E654094B009AE554084B2000E254019A8D
:102EA000074BE254BA22E93BFF3B9200A354103295
:102EB000A354FEBDD8520000E5020000E602000067
:102EC000E70200000300FC33586E9B6EC01A01D568
:102ED0005F30FF30704710B5040020007D30FF30B8
:102EE000FFF7F0FF0028F8D12069FFF7C0FC10BD04
:102EF00010B51430FFF7E6FF10BD0300FC33596E28
:102F00009A6E914205DB5A6E986E801A5E30FF30E1
:102F10007047986E5B6EC01A0138F9E710B57D30C6
:102F2000FF30FFF7EAFF10BD70B504000069FFF73E
:102F3000BAFC002805D02069FFF7C5FC2069FFF71F
:102F4000B7FC2069FFF79FFC002824D025002069EA
:102F5000FFF7B9FCAF21FC350600A86F490001302E
:102F600001F07CFAEB6F994203D0AB6FE3181E754A
:102F7000A967BA239B00E35CFF2B0CD02000143020
:102F8000FFF7BBFF092806DCBB23BD229B00920094
:102F9000E358A2581A602069FFF790FC00281DD062
:102FA00020007D30FF30FFF78DFF002825D09E23C5
:102FB0009B00E618B26E736E9A421BD0BE22AF2100
:102FC000B36EB06EE3185200013049009D5C01F011
:102FD00045FAB1662069E9B2FFF779FC2069FFF78D
:102FE00057FC002805D02069FFF756FC2069FFF741
:102FF00046FC70BD01256D42ECE72069FFF773FCCC
:10300000ECE70000F7B5040000690E00FFF756FC7E
:10301000002847D1AF277F009E239B00E518686EEC
:10302000AB6E39000130019301F018FA019B99420F
:1030300024D1EFF31083DB070ED4204B5B68DB0554
:10304000DA0D002BE8D0103A53B212060DD49B08CB
:103050001B4AC0339B009B582069FFF72FFC0028B8
:10306000DAD02000FFF760FFD6E70F221340083BBD
:10307000144A9B089B009B181B68EDE7AF21686E04
:103080004900013001F0EAF9AB6E994205D0BE2249
:103090006B6E5200E3189E5469662069FFF71FFCAF
:1030A0000120FEBD20007D30FF30FFF70BFF002820
:1030B000B0D131002069FFF70AFCF1E700ED00E034
:1030C00000E100E01CED00E070B50500FC35EA6FA2
:1030D000AB6F04009A421DD0AF21EB6F4900C318BB
:1030E000E86F1E7D013001F0B9F9E967BA239B0052
:1030F000E35CFF2B0CD020001430FFF7FEFE0A2803
:1031000006DDBC23BD229B009200E358A2581A6042
:10311000300070BD01267642E8E7704710B5FFF732
:10312000A7F901F07BFDFFF7F8FF0120FFF7CCF8CE
:10313000094C200000F052FA200000F0C7FAFEF718
:10314000DDFFFFF705F8FFF7DFF8044B002BF8D0A1
:1031500000E000BFF5E7C046A10400200000000029
:10316000F8B505000E0017000024BC4208D02B68FB
:103170002800315D1B689847002801D00134F4E72E
:103180002000F8BD704770B50F26CB1D02003240FD
:10319000D5B22C0000093034092A00DD07341C7038
:1031A0005A1E994200D170BD1300EFE710B504001C
:1031B000806901F061FDA06A01F05EFD200010BD94
:1031C00010B50400FFF7F2FF200000F077FF2000A9
:1031D00010BD000070B5032908D1324B8000C058E3
:1031E000002802D00368DB68984770BD82291FD190
:1031F000C3B22D4D5A01AA1891692C4C80010C4084
:10320000C021890521439161294908334018802153
:1032100050612A685B01D018047949422143017149
:103220007020995C81430800302101439954DCE708
:103230000029DAD1C024C1B21B4E4A01B2189368EA
:103240001A4DA4052B40234393601A4B8001C018EC
:103250000B0050603068072608335B01195CB143EE
:103260000E0001213143195491690D402C439461A2
:1032700070240F495161195CA1430C0010212143B6
:10328000195491680C4CC3180C4080214903214308
:1032900091609168890B89039160402259790A43B2
:1032A0005A71A2E7A404002058090020FFFFFF8FF5
:1032B000CC0400208C060020FF3F00F0EFF31083C9
:1032C00003600123436072B670470368002B02D18C
:1032D00062B6BFF36F8F704737B505690400684663
:1032E000002D14D1FFF7EAFF019B621D013B02D3C1
:1032F000D57FEDB2FAE768460193FFF7E6FF002DB0
:1033000001D100203EBD206AE369C01AFAE7FFF749
:10331000D5FF22000025019B3432013B02D31578F2
:10332000EDB2FAE768460193FFF7CFFF002DE8D032
:10333000206BE36AE9E70000F0B5FF25012642684B
:10334000836811682B405B01CC186419A77AD318E5
:103350003E43A672C6689C680B4FB60436093C40D3
:1033600034439C6083682B405B01D2189468A40BA3
:10337000A4039460402283682B4008335B01CB1880
:1033800019790A431A71F0BDFF3F00F0F7B50569DE
:1033900004000E0017006846002D43D1FFF78EFF92
:1033A000019B601D013B5A1C0BD0C27F591E002A95
:1033B00005D168460193FFF788FF2800FEBD0B008A
:1033C000F1E768460193FFF780FFE369AF420AD057
:1033D000226A9A4207D95A1CE261A269D3181B7863
:1033E00073550135F1E7226A9A42E6D10023E36181
:1033F000013368462361FFF761FF22000021019B32
:10340000671D013B3532581CD3D0F97710785E1E0A
:10341000002805D0200011700193FFF78DFFECE725
:103420003300F0E7FFF74AFF2000019B3430013BF7
:103430005A1C06D00278591ED5B2002AB9D00B000A
:10344000F6E7684601930025FFF73FFFE36ABD42B8
:1034500002D0226B9A421CD8226B9A42ADD1002333
:103460006846E3622361FFF729FF2700220000215D
:10347000019B3437013B3532581C9AD03970107893
:103480005E1E00280DD0200011700193FFF754FF3D
:10349000EBE75A1CE262A26AD3181B787355013518
:1034A000D4E73300E8E7F7B582684368D2B2110089
:1034B00004000831186849014118C879C00729D5A6
:1034C00001255201CD719B189A6861699204920C92
:1034D000002923D12262226A002A41D0A26A6561B2
:1034E00068465A60FFF7EAFE342294462200019BA8
:1034F000671D013BA4443532591C2DD06146FD7730
:103500000978581ECEB2002905D00193684615707F
:10351000FFF7DBFEF7BD03001670EDE72263226BB9
:10352000002A1DD0002227006261A26968465A6005
:10353000FFF7C4FE019B621D9446013B34373032D5
:10354000591C09D061463D70C97F581ECEB2002972
:10355000DBD103001670F3E768460193FFF7B5FE71
:103560002000FFF7E9FED5E713B56A4600230C00FB
:10357000D01DD37100F0F4FD23681818206000F00E
:1035800083FE6B46D91D00F04BFE236818186B466E
:103590002060D87916BD000003290ED180220E4B81
:1035A00062311B68FF31585C524202435A54682210
:1035B0006339FF32FF39995470470129FCD18022C9
:1035C000054B24311B68FF31585C524202435A5468
:1035D00028222339FF32EDE75809002070B5002575
:1035E0002F4B0121040020201D70FEF7F5FF012163
:1035F0002020FFF721F82B4B01211F201D70FEF723
:10360000EBFF01211F20FFF717F82023264A0F2088
:10361000D1690B43D361012224490B7813430B700A
:10362000234B19788143197006211D78294319709D
:1036300020490D782A430A701A7802401A706022D5
:1036400019780A431A701C4B1C4A5A805A78D209BE
:10365000FCD11B48FEF702FE1A4D280000F028FEA0
:10366000280000F03BFE7F212B68C1201A788000E3
:103670000A401A70042219780A430C211A701A8918
:103680008A4311491A810A581202120A0A508022EA
:103690000A6019787E3A0A431A700123237070BDBC
:1036A000C1040020C0040020000400405844004130
:1036B0003C44004159440041000C004006400000D9
:1036C000954000005809002000E100E00078002843
:1036D00010D00121084B1B681A898A431A810822DD
:1036E000198B0A431A830422198B0A431A83002276
:1036F000024B1A607047C04658090020500900204C
:103700000A000E498B699B0B9B038B610B6802219E
:10371000FF3319729879823901439971197A8907AF
:10372000FCD57F20064B0240997A814311438022C9
:103730009972997A52420A439A7270475809002046
:103740000050004110B50B790C00002B0CD1080083
:1037500000F014FD002801D0012010BD094A936932
:103760009B0B9B039361F7E700F08EFD210000F0B7
:103770007BFD0028F0D1034A93699B0B9B03936167
:10378000EBE7C04658090020F7B50D001100832A69
:1037900019D1EBB2324C5A01A21891693148AD01EE
:1037A0000840C0218905014391612F4920686D18A7
:1037B0007021083355615B011A5C8A431100402275
:1037C0000A431A54F7BD022A45D1284AAB0098583B
:1037D000002802D003685B699847382000F06AFC33
:1037E000234B8027036000231D4E7F00421D036290
:1037F00003614361C36146608560C760D3772F3240
:10380000C3620363040013703800537001F02AFA96
:103810000190A061380001F025FAEBB25A01A062D4
:10382000B21891680F4808330840C0218905014348
:103830009160316807265B01585CAD00B04306001B
:10384000032030435854019B20005360FFF774FD60
:10385000064B5C51B6E72800FFF7BCFCB2E7C04658
:1038600058090020FFFFFF8FCC040020A404002093
:103870001853000070B505000124064BA200D25871
:10388000002A05D021002800FFF77EFF0134F4E76D
:1038900070BDC04650000020084B8A00D05810B5BB
:1038A000002803D003689B68984710BD044BC9B239
:1038B0004901591888688004800CF6E7A4040020A8
:1038C0005809002010B50C00FFF7E6FF00280CD0C7
:1038D000064BE4B219688023083464010C1962793C
:1038E0005B42134363710223E37110BD580900204A
:1038F00070B5CBB2124A13485C01890189180219CC
:1039000051609168104D08330D4080218902294390
:10391000402591609168890B8903916001685A0183
:103920008A1816793543157195796D06FCD55B01BA
:10393000C918CB79DB07FCD500198068C0B270BD0F
:103940008C06002058090020FF3F00F070B51400DD
:1039500040220B4B0D001B68FF3359790A435A7103
:103960000021FFF7C5FFA04200D920000023054930
:10397000A34203D0CA5CEA540133F9E770BDC046E4
:10398000580900208C06002010B50C48C9B2490126
:10399000421893689B049B0C3F2B0BD99468403BC7
:1039A0009B04A40B9B0CA4032343936041188868D9
:1039B000C0B210BD93689B0B9B03F6E7580900202B
:1039C000F0B51C002F4B85B01B6806000D0001925E
:1039D000002B54D02C4F3B78D9B2002B02D11F20A2
:1039E000FEF72AFE64233B70284BAA00D05800281B
:1039F00008D0036822005B68019998470400200002
:103A000005B0F0BD29003000FFF746FF844204D91D
:103A100029003000FFF740FF040029003000FFF7C5
:103A2000B3FF0121EBB21A4F03935B010293029A99
:103A30003B6801989B18FF335A7A0A435A72154B18
:103A4000A9012200C91801F021F9002CD7D02900C2
:103A50003000FFF721FF0028D1D14021039B3A68B5
:103A600008335B01D3181879014319710121D97109
:103A7000029BD318FF339A7A0A439A72BFE7012454
:103A80006442BCE750090020C0040020A4040020C8
:103A9000580900208C06002013B56B46DC1D22005F
:103AA0000123FFF78DFF012801D1207816BD0120E9
:103AB0004042FBE7F0B51C003A4B85B01B680E0096
:103AC0000192002B3FD08023DB019C423BD8364D36
:103AD0002B78D9B2002B02D12020FEF7ADFD642354
:103AE00000272B70314BB201D3180293002C2CD03D
:103AF0002F4B1B680393FF2333401D0000930835B1
:103B0000039B6D015D19AB79DB0921D0294B2A4953
:103B1000186800F01DFC294B1721584300F018FCD1
:103B2000274BEA79920713D49A5D002A01D1013814
:103B3000F7D201229A55009B5A011D4B9B189A6996
:103B4000920B92039A6101277F42380005B0F0BDC5
:103B500000221B4B25009A55402C00D940252A00F5
:103B60000199029801F092F8009BA9045A01104BA8
:103B7000890C9B18029A7F195A619A69641B920BEF
:103B800092030A439A61009B039A08335B01D3189E
:103B90000222DA715979823A0A435A71019B5B1900
:103BA0000193A3E750090020C1040020CC040020A9
:103BB000580900204000002040420F007011010011
:103BC000C304002070B50C001D000D4BA601F618B3
:103BD000110030002A0001F059F8E4B2094A6401EA
:103BE00014196661A369084928000B40A361A16903
:103BF000AB04890B9B0C89031943A16170BDC046BE
:103C0000CC04002058090020FF3F00F0F7B5104B0E
:103C10000F001B7814000190002B0CD10D4B1600E7
:103C20001D78002D09D00C4E0C48358828182D1908
:103C300001F02CF835802000FEBD002EFBD03300B3
:103C40007A1900210198FFF7BDFF2D18361AF4E705
:103C50004C0800204D0900204E0900204D0800208E
:103C6000F8B500200D00140000AF012A27D9D31D9C
:103C70006A46DB08DB00D31A9D46080001F0D2F843
:103C80006E46032302220021013040003070737021
:103C9000A2420DD2287800280AD0531CDBB201358D
:103CA000B0549C4203D00232F154D2B2F0E7220069
:103CB00031000448FFF7AAFF431E9841C0B2BD4639
:103CC000F8BDC046A1040020F0B50025012785B04D
:103CD000184B0E0069461F7004000095FFF744FC66
:103CE000154B01A90B806A3BFF3BCB716E3B0B72FE
:103CF000009B320009334B800E4B8D714F71087160
:103D00001D70092E0FD00D4E092237700C4F200068
:103D100000953D80FFF77AFF69462000FFF724FCFD
:103D20003A88084935702000FFF770FF012005B080
:103D3000F0BDC0464C080020090200004D090020DB
:103D40004E0900204D080020F0B5CF7805000E0088
:103D500093B0022F09D1C9882B48FFF7B5FF441E45
:103D6000A041C4B2200013B0F0BD00F08DFA3100C4
:103D700000F06AFA002803D0C417241AE40FF1E710
:103D8000012F0BD1F2882149112A11D8D2B2002A71
:103D90000ED02800FFF73AFF0124E3E70400032FC9
:103DA000E0D1B378002B05D1F2881949032AEDD967
:103DB0000A78EEE7022B06D1B27916492800FFF700
:103DC0004FFF0400CEE7012B02D1B2791249F5E78B
:103DD000032BC7D1114B01A91868FFF7D4F9104B79
:103DE00003A91868FFF7CFF90E4B05A91868FFF76C
:103DF000CAF90D4B07A91868FFF7C5F96B460533DB
:103E0000DC77B27901A9D9E7A10400205153000061
:103E10004453000030530000485300000CA08000C1
:103E200040A0800044A0800048A0800037B5050075
:103E300048780C000B2810D800F080FA061B0F31D0
:103E40000F484D7551546E71097801AA002906D1A9
:103E5000022311802800FFF7B5FE01203EBD00239C
:103E60001380324B1B78012B00D1137002230021E9
:103E7000F0E78A780023012A09D16A4693802C4B07
:103E80001B78012B00D11371022301AAEFE7274A07
:103E90001370284A93699B0B9B039361DDE78C7831
:103EA000012C07D1224B01AA1C70234B1B781370E5
:103EB0002300DCE700208442D0D11C4B01301D4A96
:103EC000187093699B0B9B039361C7E7280089785F
:103ED000FFF716FCC1E72800FFF736FFBEE7012316
:103EE000164AC4E70B780020DB06B7D12800FFF79D
:103EF000C1FC2A200221A278104BFF301A600D4A23
:103F000013681C5C21434A241954FF34195D293875
:103F1000FF3801431955D4E70123094AA7E78A78F6
:103F2000074B1A60B5E7002098E7C046C20400209E
:103F3000CA040020580900200C530000500900203A
:103F4000540900204B4BF7B51C780700002C00D01B
:103F500083E0494E33689B8B1B070ED52100200060
:103F6000FFF738F9326810231100FF31887A0343D4
:103F70008B72424B1C600823938333689A8B5207E1
:103F80001FD504229A833E4A1378002B0AD0137857
:103F9000013BDBB213701378002B03D101212020E9
:103FA000FEF74AFB374A1378002B0AD01378013BFF
:103FB000DBB213701378002B03D101211F20FEF711
:103FC0003BFB3368FF331A7AD2061ED510221A72D1
:103FD000597930320A435A7160232B4938000A78E4
:103FE0001A423BD1FFF722FF3368FF33002838D055
:103FF0008022997952420A439A711A7A520604D55C
:1040000040221A72597A0A435A72336800241D8C6E
:1040100001239D43EDB20193E1B2002D1DD02B0091
:104020002341019A134215D02300326808335B0103
:10403000D318DA79D20702D4DB799B0707D5134B63
:10404000A200D058002810D003681B689847019B35
:10405000A3409D430134092CDED1F7BDFFF772FB6D
:10406000C2E720210A4A9171C7E73800FFF794FAA6
:10407000EDE7C0464D0900205809002050090020F6
:10408000C1040020C00400208C060020A4040020ED
:10409000FF50004110B50248FFF754FF10BDC04665
:1040A000A1040020014B024A1A6070475809002001
:1040B0000050004110B500F0D5FD10BD10B500F066
:1040C000DBFD10BD3F20704713B56B460268D97108
:1040D0000733546819000122A04716BD10B502210C
:1040E0000069FFF7D9FB10BD10B503210069FFF788
:1040F000E9FB10BD10B51300084A0400D279002A6C
:1041000003D101230020636010BD0A000069032170
:10411000FFF7D0FC0028F4D0F6E7C0467C00002072
:1041200010B5054C03002068421C04D11A68180021
:1041300052699047206010BDC8000020074A030064
:10414000106810B5411C03D001235B42136010BD01
:1041500002211869FFF7A0FCF9E7C046C80000205B
:1041600010B5037842220233037002490248FFF778
:104170004DFD10BD84000020A104002010B5017881
:10418000030042780020A12908D1212A05D117492E
:1041900017481A3AFFF73AFD012010BD2129FCD13A
:1041A000202A13D111491248193AFFF7CFFB962262
:1041B0000E4BD200196891420ED1DA7901231A42CE
:1041C0000AD1FA20FEF7C2FA0020E6E7222A06D139
:1041D0009A78064BDA71EAE7FEF7BEFAF4E7232A8B
:1041E000DBD15A88034B1A60D7E7C0467C00002019
:1041F000A104002078000020FA220021054B920043
:104200009A60054A08321A60044A59601A611976A0
:104210007047C0465C0A002064530000A1040020DF
:1042200070B50E0000254468002C0BD023683100C7
:1042300020005B689847002802DBE4682D18F3E74C
:1042400001256D42280070BD70B50D004468002C3A
:1042500008D02368290020009B689847002802D1D5
:10426000E468F4E7200070BD70B50D004468002CD0
:1042700008D02368290020001B689847002802D135
:10428000E468F4E7200070BD064A0123116810B508
:104290000C0005481C40194203D1044944600180C8
:1042A000136010BD780A00207C0A00200204000080
:1042B00070B50400012320CC00212A78200013438C
:1042C00080222B70520000F0EAFCAB78DB07FCD4B4
:1042D000AB789B07F9D46C6270BD00001F22144BB1
:1042E00070B51B68590B9C0C9B0111405B0F224061
:1042F0001F2900D11A391F2A00D1023A072B00D1F9
:10430000043B1F2500688E01048D0A492A40214084
:1043100031430185018D14000A00AA43224302851E
:10432000028D1903044B13400B43038570BDC04637
:10433000246080003FF8FFFFFF8FFFFF02B471464B
:1043400049084900095C49008E4402BC7047C046D8
:10435000002243088B4274D303098B425FD3030AC4
:104360008B4244D3030B8B4228D3030C8B420DD3D7
:10437000FF22090212BA030C8B4202D31212090265
:1043800065D0030B8B4219D300E0090AC30B8B42A3
:1043900001D3CB03C01A5241830B8B4201D38B0351
:1043A000C01A5241430B8B4201D34B03C01A5241F6
:1043B000030B8B4201D30B03C01A5241C30A8B4239
:1043C00001D3CB02C01A5241830A8B4201D38B0224
:1043D000C01A5241430A8B4201D34B02C01A5241C8
:1043E000030A8B4201D30B02C01A5241CDD2C3093A
:1043F0008B4201D3CB01C01A524183098B4201D3B6
:104400008B01C01A524143098B4201D34B01C01AA0
:10441000524103098B4201D30B01C01A5241C30818
:104420008B4201D3CB00C01A524183088B4201D387
:104430008B00C01A524143088B4201D34B00C01A73
:104440005241411A00D20146524110467047FFE7DF
:1044500001B5002000F0F0F802BDC0460029F7D0F9
:1044600076E7704703460B437FD4002243088B4214
:1044700074D303098B425FD3030A8B4244D3030BEB
:104480008B4228D3030C8B420DD3FF22090212BAB0
:10449000030C8B4202D31212090265D0030B8B422C
:1044A00019D300E0090AC30B8B4201D3CB03C01A16
:1044B0005241830B8B4201D38B03C01A5241430BF1
:1044C0008B4201D34B03C01A5241030B8B4201D3E1
:1044D0000B03C01A5241C30A8B4201D3CB02C01A4C
:1044E0005241830A8B4201D38B02C01A5241430AC4
:1044F0008B4201D34B02C01A5241030A8B4201D3B3
:104500000B02C01A5241CDD2C3098B4201D3CB0159
:10451000C01A524183098B4201D38B01C01A524108
:1045200043098B4201D34B01C01A524103098B420C
:1045300001D30B01C01A5241C3088B4201D3CB00F7
:10454000C01A524183088B4201D38B00C01A5241DA
:1045500043088B4201D34B00C01A5241411A00D28A
:1045600001465241104670475DE0CA0F00D04942F3
:10457000031000D34042534000229C4603098B4263
:104580002DD3030A8B4212D3FC22890112BA030AEB
:104590008B420CD3890192118B4208D3890192116D
:1045A0008B4204D389013AD0921100E08909C309F2
:1045B0008B4201D3CB01C01A524183098B4201D3F4
:1045C0008B01C01A524143098B4201D34B01C01ADF
:1045D000524103098B4201D30B01C01A5241C30857
:1045E0008B4201D3CB00C01A524183088B4201D3C6
:1045F0008B00C01A5241D9D243088B4201D34B00E1
:10460000C01A5241411A00D20146634652415B1022
:10461000104601D34042002B00D549427047634603
:104620005B1000D3404201B5002000F005F802BD48
:104630000029F8D016E770477047C046F0B55746D6
:104640004E464546DE46E0B598460C034B00060054
:10465000924687B0240B5B0DCF0F002B6CD0DD4A48
:10466000934200D186E0420FE400144380221204FA
:104670001443D94AC50094466344009300239946E5
:104680009B46434642461E03D20F5B00504690466F
:10469000360B5B0D00D178E0CE4A93421DD0CE4957
:1046A000420F8C4600996344F6008C4616438022E4
:1046B0009C44120463461643C200002000930099F4
:1046C000434601318C4649467B4001930F2900D96E
:1046D0007EE0C24B890059588F465246009B3243B8
:1046E00000D056E1BB4900268C46634449460093FE
:1046F0000223194389460220E1E74346019334002F
:10470000150083465B46022B5ED0032B00D1F3E1FC
:10471000012B00D018E1002200240025019B120586
:104720002243DB071A432800110007B03CBC904627
:104730009946A246AB46F0BD2500054300D141E1B4
:10474000002C00D1ADE1200000F04AFA0100020087
:104750000B391D2310005B1A3100350008388440E6
:10476000D94085400C439E48831A00930023994604
:104770009B4686E70500254300D01CE108220093F4
:104780000223002491469B467BE75246324300D1E8
:104790000AE1002E00D176E1300000F021FA02009B
:1047A0000B3A1D2301009B1A52460839DA408E400D
:1047B000164352468A40009B8949181A03008C46CA
:1047C0006344002000937AE700240025814AA5E78E
:1047D0002F0C2D042D0C2B00110C1204120C534322
:1047E0009846130028007B43994648434844834633
:1047F00040460B00000C824658467B4350440293CF
:10480000814506D99A4680235B029946CA4453469D
:104810000293030C9B4643461B0400041B0C984662
:10482000030043440493330C99462B003604360CA2
:104830007343984633007B439A464B465D435F4340
:1048400043465544180C4019824503D980235B0226
:104850009A465744050CEB19059343461D042D0C4D
:1048600000044019250C2404240C270057436A43F4
:1048700090462A003B0C9A464A43614341445144C6
:104880008344884503D980235B02984642443F0411
:104890000B0C3F0C0904C919270098464B46774377
:1048A0005C436E435D433B0C9946A4194C4442441F
:1048B0000395A64204D980235B029846454403959C
:1048C000029B3F045B441E008342804123049846C0
:1048D000059B3F0C4744984676188E4289414744D1
:1048E00040423D18A846934649428A46C3449F42E7
:1048F000BF4180458041039BDA449846534640427D
:104900007F420743240C934592418A4589413F19D0
:10491000DC0D049B75021D43681E854153465242BF
:1049200049420A43BF184744F60D7F0235435A02F5
:104930003C431543FB0100D4C1E001216A080D404E
:104940001543E2071543640826496144002956DDF2
:104950006B0709D00F222A40042A05D02A1DAA423B
:10496000AD416D4264191500E30104D580211E4A52
:10497000C900144061441D4A914200DD24E76207EA
:10498000ED08640249051543240B4A0DC6E601975C
:10499000B8E6104A0320944663444A460093032332
:1049A0001A43914652468AE64946012319438946ED
:1049B0000026012083E60C22009303230500914684
:1049C0009B465EE6042399460023009301330024AE
:1049D0009B4656E6FF07000001FCFFFF88530000DE
:1049E0000DFCFFFFFF030000FFFFFFFEFE070000BE
:1049F000002380240025444A019324038EE60120ED
:104A0000401A382800DD86E61F285BDD1F222300C0
:104A10005242511ACB401900202803D03B4A62442D
:104A2000944025436A1E95412A000A4307210D0040
:104A30000024154011425BD00F21002411400429AD
:104A400053D0111D914292415242A4180A002302F0
:104A50004BD501220024002560E680231B031C4265
:104A600009D01E4207D133431C0343461500240BD3
:104A7000254A019352E68022120314432403224A5A
:104A8000240B01974AE600F0ABF803001A00153238
:104A900020301C2A00DC84E65646083B00229E405B
:104AA00089E600F09DF801000200153120321C2932
:104AB00000DC4EE6340008380025844053E6009BB5
:104AC0009C4641E71249220061442E008D408A40F5
:104AD000C640691E8D4132432A43C4405307B6D0B5
:104AE0000F2111400429ACD1B1E765076402240B02
:104AF000D2081543002211E6802212031443240336
:104B0000014A240B0AE6C046FF0700003E040000ED
:104B10001E0400000A0030B5134C530009030500C1
:104B2000090B00205B0DD20FA34204DD0F48834226
:104B300002DD0F4BD01830BD8020400301430D48EB
:104B4000C01A1F2808DD0C48C31AD9400B00584270
:104B5000002AF0D11800EEE7084CC540A446634493
:104B600099400B002B43F2E7FE0300001D040000F8
:104B7000FFFFFF7F3304000013040000EDFBFFFF85
:104B800070B5002816D0C317C5185D40C40F2800A3
:104B900000F026F8114A121A0A2816DC03002E002B
:104BA00015339E400B23181AC54053052D032D0BBA
:104BB0005B0D03E000240023002500261B052B438A
:104BC000E40723433000190070BD0B3885405305BE
:104BD0002D0300262D0B5B0DF0E7C0461E040000E0
:104BE0001C2101231B04984201D3000C10391B0A1D
:104BF000984201D3000A08391B09984201D30009E1
:104C0000043902A2105C40187047C0460403020237
:104C100001010101000000000000000070B5002645
:104C20000C4D0D4C641BA410A64209D1002600F0C7
:104C300021F90A4D0A4C641BA410A64205D170BD8F
:104C4000B300EB5898470136EEE7B300EB589847AE
:104C50000136F2E730010020300100203001002051
:104C60004001002010B5034B0100186800F06AF8FD
:104C700010BDC046CC00002010B5034B01001868E1
:104C800000F016F810BDC046CC000020002310B57F
:104C90009A4200D110BDCC5CC4540133F8E7030044
:104CA0008218934200D1704719700133F9E7000070
:104CB00070B50500002910D00C1F2368002B00DA06
:104CC000E418280000F0B6F81D4A1368002B05D13F
:104CD00063601460280000F0B5F870BDA34208D9E5
:104CE000216860188342F3D118685B68411821601D
:104CF000EEE71A005B68002B01D0A342F9D91168D6
:104D00005018A0420BD12068091850181160834236
:104D1000E0D118685B68411811605360DAE7A0427F
:104D200002D90C232B60D5E721686018834203D198
:104D300018685B684118216063605460CAE7C04628
:104D4000840A0020F8B50323CD1C9D4308350600D6
:104D50000C2D1FD20C25A9421ED8300000F06AF895
:104D600025490A681400002C1AD1244F3B68002BF7
:104D700004D12100300000F043F8386029003000F1
:104D800000F03EF8431C2BD10C233000336000F0C0
:104D900059F803E0002DDEDA0C2333600020F8BD63
:104DA00023685B1B19D40B2B03D92360E4182560FF
:104DB00003E06368A2420ED10B60300000F042F8BD
:104DC000200007220B30231D9043C21A9842E6D0E0
:104DD0001B1AA350E3E75360EFE722006468C2E7C1
:104DE0000323C41C9C43A042E1D0211A300000F0F0
:104DF00007F8431CDBD1C7E7840A0020880A00209B
:104E0000002370B5064D040008002B6000F024F864
:104E1000431C03D12B68002B00D0236070BDC0461B
:104E2000900A00200023C25C0133002AFBD1581EE7
:104E30007047000010B5024800F00CF810BDC046E5
:104E4000980A002010B5024800F005F810BDC046D1
:104E5000980A002070477047044A03001068002831
:104E600002D0C318136070470148FAE78C0A00208B
:104E7000A00A0020F8B5C046F8BC08BC9E467047A2
:104E8000F8B5C046F8BC08BC9E467047000000005C
:104E90000B0000000200000004000000FF00FFFF04
:104EA000FFFF0B00000000000A00000002000000ED
:104EB00004000000FF00FFFFFFFF0A0000000000E9
:104EC0000E0000000800000004000000FF00FFFFCB
:104ED000FFFF0E00000000000900000004000000B9
:104EE0001C000000FF00010001000900000000009C
:104EF00008000000040000001C000000FF0000008B
:104F000000001000000000000F000000040000007E
:104F10001C000000FF00010301030F00000000005F
:104F200014000000050000002C000000FF0002003B
:104F3000020004000000000015000000080000004E
:104F400004000000FF00FFFFFFFF0500000000005D
:104F500006000000040000001E0000000600000122
:104F6000000106000000000007000000040000002F
:104F70001E00000007000101010107000000000001
:104F800012000000040000001C000000FF000003ED
:104F900000030200000000001000000004000000F8
:104FA0001C000000FF0000020002000000000000E2
:104FB00013000000050000002C000000FF000300AB
:104FC00003000300000000001100000004000000C6
:104FD0001C000000FF0001020102010000000000AF
:104FE0000200000001000000020000000000FFFFBE
:104FF000FFFF0200010000000800000001000000A7
:105000001800000002000004000408000100000075
:105010000900000001000000180000000300010466
:10502000010409000000000004000000010000006D
:10503000000000000400FFFFFFFF0400000000006C
:105040000500000001000000000000000500FFFF57
:10505000FFFF050001000000020000000100000049
:10506000000000000A00FFFFFFFF02000000000038
:1050700006000000010000001E0000000600000104
:105080000001060000000000070000000100000011
:105090001E000000070001010101070000000000E0
:1050A00008000000010000001E00000010000000C9
:1050B00000001000000000000900000001000000D6
:1050C0001E000000110001000100090000000000A6
:1050D0000B00000001000000060000001300FFFFAD
:1050E000FFFF0B00000000000A00000001000000AC
:1050F000060000001200FFFFFFFF0A000000000092
:10510000160000000200000004000000FF00FFFF86
:10511000FFFF060000000000170000000200000072
:1051200004000000FF00FFFFFFFF07000000000079
:105130000C0000000300000004000000FF00FFFF5F
:10514000FFFF0C00010000000A0000000300000047
:1051500004000000FF00FFFFFFFF0A000100000045
:105160000B0000000300000004000000FF00FFFF30
:10517000FFFF0B0001000000030000000B00000017
:1051800004000000FF00FFFFFFFFFF000000000021
:105190001B0000000B00000004000000FF00FFFFE8
:1051A000FFFFFF00000000001C00000006000000E0
:1051B00000000000FF00FFFFFFFFFF0000000000F5
:1051C000180000000600000000000000FF00FFFFC4
:1051D000FFFFFF00000000001900000006000000B3
:1051E00000000000FF00FFFFFFFFFF0000000000C5
:1051F0000E0000000200000004000000FF00FFFF9E
:10520000FFFFFF0000000000080000000300000096
:1052100004000000FF00FFFFFFFFFF000000000090
:10522000090000000300000004000000FF00FFFF71
:10523000FFFFFF00000000000D000000080000005C
:1052400004000000FF00FFFFFFFF0D000000000052
:1052500006000000040000001E000000060000011F
:105260000001060000000000030000000100000033
:1052700002000000FF00FFFFFFFFFF000000000032
:105280000200000001000000020000001400FFFF07
:10529000FFFF02000008004214090000000C004259
:1052A000150A000000100042160B00000014004216
:1052B000170C000000180042180D0000001C0042EE
:1052C000190E0000000100020003000400000005A8
:1052D00000000006000000070000000000000000C1
:1052E00005300000613100001D2F0000D72E0000A6
:1052F000F12E0000C9300000C92C0000B92C0000BC
:10530000412D0000E32C0000B52C0000000000003F
:105310000000000000000000A73400008D330000F2
:10532000D932000085310000AD310000C1310000EC
:1053300046656174686572204D30204578707265ED
:105340007373000004030904416461667275697433
:105350000012010002EF0201409A231B80000101AC
:10536000020301000000000000000000C94000002E
:10537000F5400000C5400000E9400000DD400000AD
:105380003D41000021410000D0470000FE460000E2
:10539000FE460000FA4600000447000004470000F3
:1053A000F0490000FA46000004470000F049000000
:1053B00004470000FA4600008E4900008E490000B4
:0C53C0008E4900005A4A00000000000066
:1053CC0006010000C4000000C4000000DC00000066
:1053DC00C400000000000000F700000006010000FF
:1053EC000400000008000000080000000400000099
:1053FC000400000004000000040000000400000091
:10540C0040420F00FFFFFFFFFFFFFFFF00366E0162
:10541C000000000083000000020000008200000079
:10542C000000000000000000000000000000000070
:10543C000000000000000000FFFFFFFF00C20100A1
:10544C0000000800080B0002020200000904000022
:10545C0001020200000524001001042402060524A8
:10546C000600010524010101070581031000100944
:10547C00040100020A0000000705020240000007B8
:10548C000583024000000000FFFFFFFFD00000205A
:10549C000000000000000000000000000000000000
:1054AC0000000000000000000000000000000000F0
:1054BC0000000000000000000000000000000000E0
:1054CC0000000000000000000000000000000000D0
:1054DC0000000000000000000000000000000000C0
:1054EC0000000000000000000000000000000000B0
:1054FC00DD20000065210000A5400000F9410000FE
:10550C00B5200000000000000000000000000000BA
:04000003000021F9DF
:00000001FF
