:1020000000800020C52A0000AD2A0000AD2A000093
:1020100000000000000000000000000000000000C0
:10202000000000000000000000000000AD2A0000D9
:102030000000000000000000AD2A0000192B000085
:10204000AD2A0000AD2A0000AD2A0000AD2A000034
:10205000AD2A0000AD2A000039260000B12A000098
:10206000AD2A0000212A0000AD2A0000AD2A0000A0
:10207000AD2A0000AD2A0000AD2A0000AD2A000004
:10208000AD2A0000AD2A0000AD2A0000AD2A0000F4
:1020900000000000AD2A0000AD2A0000AD2A0000BB
:1020A000AD2A0000AD2A0000AD2A0000AD2A0000D4
:1020B0000000000010B5064C2378002B07D1054B1B
:1020C000002B02D0044800E000BF0123237010BDA4
:1020D00070020020000000006CA80000044B10B546
:1020E000002B03D00349044800E000BF10BDC046E8
:1020F00000000000740200206CA8000070B504000D
:10210000164E02220D00A4000100300001F012F86A
:10211000E4B23000124900F0BEFF0222210030007C
:1021200001F00CF80021072000F0ECFE0D4E21001C
:10213000300000F00EF90021300000F00AF9040030
:10214000012D05DD04020021300000F002F90443F6
:102150000121072000F0D6FE200070BD38080020C5
:10216000649E00008C02002070B50C000500002168
:10217000072000F0C7FE0221AD002943064DC9B279
:10218000280000F0E6F82100280000F0E2F8012124
:10219000072000F0B7FE70BD8C020020962110B51C
:1021A00089010F4801F020FB0E4800F089F9002159
:1021B000062000F077FE0121072000F073FE2D219C
:1021C0000220FFF7D1FF03210120FFF7CDFF0221FD
:1021D0000320FFF7C9FF642000F0DCFC10BDC046FF
:1021E000380800208C02002070B50A21032088B036
:1021F000FFF7BAFF062000F0B1FE040001283DD130
:1022000002212120FFF77AFF06001D4D1D492800FD
:1022100000F041FF300003F04FF91B4903F040F894
:1022200004F078FF02260B0002000096280001F05F
:1022300043F821001F20FFF761FF3100C4B22020C6
:10224000FFF75CFF1149060005A802F0F6FC072124
:102250002140090431430A22890802A802F011FD35
:1022600002A905A802F038FD0100280000F024FFB3
:1022700002A802F09AFC05A802F097FC08B070BD15
:1022800038080020669E00000000A0416F9E0000FC
:1022900010B500F01DFB0022024B8000C3584933EB
:1022A0001A7010BD2C030020F0B5040085B01E008C
:1022B0000AAB1B78103001930BAB1B78170002930D
:1022C0000CAB1B780D00039300F084F92000243040
:1022D00000F080F9220000234832A363E363236403
:1022E00063641370537063729D4205D12721084BBC
:1022F000084A094804F074FF2000019B25606371BF
:10230000029B2771E371039BA671237205B0F0BD98
:102310007F9E0000909E0000E49E000030B5040007
:1023200085B002AD00680291039201F0B5F86B79B7
:10233000227AE17920680093002301F091F929794C
:10234000029A206801F0CCF8206801F09BF805B0F3
:1023500030BD10B5006801F0A8F810BD10B50068D8
:1023600001F0D2F803000020834203DB0C3043432A
:10237000014A985810BDC0463C9F000010B5006847
:1023800001F0C2F8002805DB0C2343430348C018C2
:10239000406810BD01204042FBE7C0463C9F000062
:1023A00010B5006801F0B0F8002805DB0C234343AA
:1023B0000348C018806810BD01204042FBE7C046BA
:1023C0003C9F0000F0B506001036050089B03000D3
:1023D00000F056F900286CD12F002437380000F0A7
:1023E0004FF9041E62D12800FFF7DAFFC1B23000B6
:1023F00000F026FA0221300000F046FA01222E49B0
:10240000300000F019FA300000F062FA2B4B800027
:10241000C5502800FFF7B2FFC1B2380000F010FA33
:102420000221380000F030FA380000F051FA234B56
:102430008000C5502800FFF791FF01230100220012
:10244000029330002300049403940194009400F05C
:1024500041FAA8632800FFF781FF01230200210051
:10246000019338002300049403940294009400F034
:1024700031FAE863402004F00FFF2A004832286454
:10248000079200280BD00123137068646B6C102234
:102490001819E96B103404F013FF402CF6D1079B98
:1024A0001B78002B05D1380000F084F9300000F0D3
:1024B00081F909B0F0BDC046912200002C03002034
:1024C00070B5437A0400002B03D10122438142728C
:1024D000C360230048331B78002B02D12000FFF794
:1024E00071FF18263300082120790D4D4343EB1866
:1024F000595600F04BFD33000821A0794343EB18F7
:10250000595600F043FD082160794643AD196956DC
:1025100000F03CFD034B200006CBFFF7FFFE70BD33
:10252000849F0000240300201FB500240D4B0E4A99
:102530009C801A60012301931C3300931C220B49D9
:10254000029401330A48FFF7AFFE022302932333BC
:10255000009324220749019401330748FFF7A4FEA2
:102560001FBDC0462403002000093D0028080020AC
:102570008C02002020080020D8020020084B196897
:10258000002909D1EFF31080064A002803D172B662
:10259000BFF35F8F013111701A6801321A60704702
:1025A000E8040020E4040020084B1A68002A0CD03C
:1025B0001A68013A1A601B68002B06D1044B1B787D
:1025C000002B02D0BFF35F8F62B67047E804002093
:1025D000E4040020FF2310B50370C0230021040091
:1025E0009B004170418083800C22083004F071FE12
:1025F000200010BD01230A0010B51A40194208D06E
:102600000C4A1370033343708368002B00D0984743
:1026100010BD0223194204D006490B70C3684270F2
:10262000F3E704231942F3D0024A137003334370D3
:102630000369EAE74E48004110B5FFF79FFF0C4BD6
:102640001B8C1B071B0F0B2B0FD80A4A99008858AD
:1026500000280AD00F2408490A78A24313430B70BC
:10266000064B1978C9B2FFF7C5FFFFF79DFF10BDF4
:1026700000480041EC0400203F4800414E48004122
:10268000F8B500230278050018000B2A77D93C4ED4
:102690002B702B780B2B07D801229A4031681142FE
:1026A00004D001332B70F4E7012068E0FFF766FFE8
:1026B0003768344C002F2BD12022334B33485969D3
:1026C0000A435A611022D9690A43DA610222238837
:1026D0003900934323802388013A134323802C4BF2
:1026E0006063BF32A36304F0F4FDC02239002848C0
:1026F00004F0EFFD4022C120264B80002380264BB2
:1027000026491A601A581140C02212040A431A506E
:1027100001231A00297830688A40024332600F266C
:102720001F4A880085501F4831400278B2430A434F
:10273000027002201C4A11788143117011781943EC
:102740001170297822698B409A43226160223F21CF
:10275000636C934363642A79636C0A4013491202E1
:102760000B400321134363646A79636C0A40104988
:1027700092050B4013436364FFF716FF0020F8BD7A
:10278000E004002000480041000400402004002034
:1027900060030020020F000000E100E0FFFF00FFE7
:1027A000EC0400203F48004140480041FFC0FFFFCB
:1027B000FFFF3FFF70B50500FFF7E0FE6B785CB2EE
:1027C000062B2BD02B7802240B2B27D801229A40E2
:1027D000144B1968114221D01968914319601B6884
:1027E000002B14D14022104BDA67BFF34F8FBFF399
:1027F0006F8F21000D4A0E311388A34313800C4BB9
:10280000DA698A43DA615A6910318A435A610024CD
:102810002B78084A9B009C50FF232B70FFF7C4FEC7
:10282000200070BDE004002004E100E00048004109
:1028300000040040EC040020023292001150704766
:10284000037870B505000C0001710B2B14D8FFF74D
:1028500095FE29780F25094829400378084AAB439B
:102860000B4303703F23516C1C40064B240219405C
:102870000C435464FFF798FE70BDC0463F480041CA
:1028800000480041FFC0FFFF037870B505000C0051
:1028900041710B2B14D8FFF771FE29780F250948D9
:1028A00029400378084AAB430B4303700323516C60
:1028B0001C40064BA40519400C435464FFF774FEFA
:1028C00070BDC0463F48004100480041FFFF3FFF48
:1028D00000787047F0B587B001930CAB1E780DAB54
:1028E0001B78050002930EAB1B780078039310ABA6
:1028F0001F78049105920B2802D9002007B0F0BD83
:102900006B78062BF9D0AB78002B00D179E0102141
:10291000080004F0B7FC0028EFD02B783B4A1B01DD
:102920009B181A00D168002904D0D1688B4201D0CD
:10293000D268F7E7D06001220223AA70964203D042
:10294000DB18022E00D013000624018811430180F9
:102950000188A143018001881234A1430180153C04
:10296000018826402A4C360221400E430680029EF2
:102970000188284C16402140B6020E430680039E73
:102980000188254C16402140F6020E43068001883E
:10299000224E3A40314012030A43072102800F9A27
:1029A000114002884903D204D20C0A4302806A46CD
:1029B00092884280049A4260029A002A08D0019AC2
:1029C00041685A43002F01D00F9CA2408A184260F0
:1029D000059A8260039A002A09D0019A84685A43B2
:1029E0001300002F01D10F9A9340E3188360002356
:1029F000EA789A4203D02B78044A1B019B18C360E3
:102A00007CE7024B0001C01895E7C0462004002077
:102A1000FFFCFFFFFFFBFFFFFFF7FFFFFFEFFFFFE5
:102A200010B5024801F0C8FF10BDC0461C050020CB
:102A300013B5114C1149200000F08EFC10491148CB
:102A400000F08AFC1049114800F086FC104911483A
:102A500000F082FC1049114800F07EFC104911483A
:102A600000F07AFC0123032221000092019300224E
:102A70000D4801F037FF13BD180800200008004280
:102A8000000C00421C08002000100042200800201A
:102A900000140042240800200018004228080020EA
:102AA000001C00422C0800201C050020FEE700004E
:102AB000034B10B51B68002B00D0984710BDC046D3
:102AC000300800200F4A1048110010B50F4B824209
:102AD00002D0934209D11300824209D100F07EF85E
:102AE00002F008F9FEE710CB10C18142FBD3F3E7F7
:102AF000074A8B42F2D00021064B9A42EED202C224
:102B0000FBE7C046000000207002002070A8000013
:102B100070020020380E002010B500F05CF800288C
:102B200001D100F04DF810BD014B18607047C04650
:102B300030080020F7B51348012284461249134C8F
:102B40008E68636805689B0E13400192886862680E
:102B5000019F920E3A4067463F6893420ED1BD42B4
:102B60000CD186420AD35B19FA254868AD00861B52
:102B700007486B437043000DC018FEBD3D001300B5
:102B80000600E3E73408002010E000E000ED00E07C
:102B90005555000070B5041E11D0FFF7CBFFFA2683
:102BA0000500B60000F016F8FFF7C4FF401BB04266
:102BB000F8D3FA23013C9B00ED18002CF4D170BD32
:102BC00010B5034A13680133136000F08BFB10BD8E
:102BD0003408002070470020704700001E2270B5A6
:102BE00046484749436893431C3A134343600823CC
:102BF0008C6923438B61434C434B9C829C8A1443D6
:102C00009C82DC681442FCD00124404A1470157880
:102C1000254203D055786DB2002DF8DB0124946075
:102C2000547864B2002CFBDB394C5460547864B2A5
:102C3000002CFBDB8224E4015480547864B2002C25
:102C4000FBDB02249C840E34DD682542FCD0314C31
:102C5000DC621024DD682542FCD09D8C2E4C2C4378
:102C60009C841024DD682542FCD002249D8C8026A3
:102C70002C439C844024DD683542FCD0DD6825422D
:102C8000F9D01024DD682542FCD0002494605478EB
:102C900064B2002CFBDB214C5460547864B2002CED
:102CA000FBDB1C6A1E4D2C4080251C621C6AAC4359
:102CB0001C62032393601B4B536053785BB2002B61
:102CC000FBDB0023FF240B72174A4B728B72CB7213
:102CD000164B1A60164B174A1B6811689A065B015F
:102CE000C90E2340520F12020B431343124A13859D
:102CF000802342681343436070BDC04600400041DA
:102D0000000400400C06000000080040000C0040D9
:102D100001050100B905FF7D040A0000000703005A
:102D2000FFFCFFFF03060100006CDC020000002036
:102D3000246080002060800000400042FA212E4B79
:102D400010B51868890002F0D9F8802301385B04B7
:102D500098424FD229492A4A4860C020136A000687
:102D60001B021B0A0343136200238B6007330B60B3
:102D70008021136A09061B021B0A0B431362FC2203
:102D8000204B196A0A431A62FF22196A12020A4387
:102D90001A62A022196AD2020A431A621A4B1C0054
:102DA0005A7852B2002AFBDB184A5A80184B1A0094
:102DB000597EC9090129FBD0C821890099800521C4
:102DC000D970537EDB09012BFBD0C02300205B01AF
:102DD0001361907000F022F863785BB2002BFBDB8C
:102DE0000C4B0D4A6380D379DB09012BFBD04123C7
:102DF000537010BDFEE7C0460000002010E000E068
:102E000000ED00E000040040000C00401E40000007
:102E10000040004221400000004800421F4900B528
:102E20000B004A7ED209012AFBD001380A282FD88C
:102E300002F05AF81B2E2E2E2E2E062E2E241100B6
:102E40001A6917490A400F211A615A788A431100FA
:102E500001220A4310E01A6911490A400F211A6140
:102E60005A788A4311000322F3E71A690C490A4091
:102E70000F211A615A788A435A7000BD1A690849AD
:102E80000A400F211A615A788A4311000222E0E7B2
:102E9000F022196912050A43F3E7C04600400042D8
:102EA000FFFFFFF0182310B508245843134A1318E6
:102EB0001C57013412D001245B6882569C400329C0
:102EC0000CD808000E49D2015218D318403302F032
:102ED0000BF80210060B02211970546010BD062178
:102EE000197054609461F9E70621197054605461B7
:102EF000F4E7422119709460F0E7C046849F000017
:102F0000004400411823F0B508245843114A13180F
:102F10001C5701341BD0012635005F688356BD4025
:102F20000D4ADB019A18906805420BD10C00601E17
:102F30008441D2194032107834400336A400B043A3
:102F400020431070044A9B18002901D15D61F0BD37
:102F50009D61FCE7849F000000440041182310B5E8
:102F60000824434307490020CA181457013408D0E5
:102F70005B560549DB015B18186A5368D84001238A
:102F8000184010BD849F000000440041182370B514
:102F9000082643432A4AD518AE573400013607D0D5
:102FA000072907DC00291DDA01314C424C416442FB
:102FB000200070BD0B00083BDBB20024032BF7D8C8
:102FC000092903D12100FFF76DFFF1E70A2904D198
:102FD0000839FFF767FF0024EAE700240B29E7D14F
:102FE0000A39F0E76C68012520009B56C9B26208D7
:102FF0002840DB012C4211D012480E351B189A18BC
:1030000030321078090128400143C9B211704122C1
:103010001B19403319780A431A70DCE70F26094D53
:103020005B199A18303215781B19B5432943117072
:1030300041224033197804000A431A70B8E7C046A9
:10304000849F000000440041F8B505000E00170001
:103050000024BC4208D02B682800315D1B689847CB
:10306000002801D00134F4E72000F8BD70B5050058
:103070000C00081E07D005F023F82B680200210081
:1030800028005B68984770BD10B503688A685B6864
:103090000968984710BD10B5FFF7E8FF10BD10B5DF
:1030A00003681B68984710BD10B50249FFF7DEFFA3
:1030B00010BDC0468CA3000070B50500FFF7E4FF0B
:1030C00004002800FFF7F0FF201870BDF0B58BB0AA
:1030D0006B4614000022053307000D00DA77012C3F
:1030E00000D80A2409AE2800210001F08DFF03005A
:1030F000CAB2080029001D0013003733DBB20928CB
:1031000002D813003033DBB2013E33708C42EAD96F
:1031100031003800FFF7AAFF0BB0F0BD10B5002A50
:1031200004D10368C9B21B68984710BDD2B2FFF73B
:10313000CDFFFAE710B5FFF7F1FF10BD70B5040041
:10314000FFF7ECFF05002000FFF7AEFF401970BD50
:10315000F7B51C0008AB1B78210000930700230083
:103160001000150003F05CFF4A4900281ED101221F
:103170006600760828003100474B524203F050FFAA
:10318000002809D1012231002800434B524202F0AD
:103190004BF84249002809D0E02228002100404B8A
:1031A000120602F04BF8002806D03E493800FFF71F
:1031B0005DFF06003000FEBDE022280021003A4BF2
:1031C000120602F027F80028EFD100220023280081
:1031D000210002F01FF8002814D02D213800FFF73D
:1031E0005EFF80231B060190E418002600202F4973
:1031F000009BB34208D000222D4B013602F00CFD9B
:10320000F6B2F5E70190F0E72A00230002F09AF900
:103210000D00040002F026F8060003F055FF0B0035
:1032200002002900200003F069FB0A2204000D00BF
:1032300038003100FFF74AFF019BC618009B002BA6
:1032400004D038001B49FFF711FF3618009B013BE3
:10325000DBB20093FF2BADD0154B002220002900DC
:1032600003F0E0F80D00040001F0FCFF0A22010069
:1032700001903800FFF72AFF3618019803F024FF69
:1032800002000B002000290003F038FB04000D00B1
:10329000DCE7C0468FA30000FFFFEF7F93A3000091
:1032A000FFFFEF4197A30000FFFFEFC10000E03FE9
:1032B000000024409BA3000007B50499C9B2009107
:1032C000FFF746FF0EBD0000014B18607047C04677
:1032D000040000200122024B52421A607047C0468F
:1032E00004000020164A10B51368591C27D0013B72
:1032F0001360002B23D172B68122124B920004334B
:10330000934213D3104A01211000147D0C42FCD0CB
:103310002021148BFF319B085B0021431183D36173
:103320000A4B13800123027D1A42FCD0BFF34F8F5A
:10333000074B084ADA60BFF34F8FC046FDE710BD68
:1033400004000020002000000040004102A5FFFF13
:1033500000ED00E00400FA05016070479446F0B506
:1033600005AC25789C1E621E944162460668920751
:10337000376824063A43224307243260006821401C
:10338000AD01002442682943022B00D05C030A43AC
:1033900022434260F0BD30B5C0250368AD031C6810
:1033A00012052A402243C0240904A40221400A43F2
:1033B0001A6003685A6814435C6030BD01230268D8
:1033C00011680B43136003681A68D207FCD4DA69EA
:1033D000D207F9D470470223026811680B431360C7
:1033E0000268D3699B07FCD4704703681A7ED20732
:1033F00002D41A7E9207FCD57047002203685A83D4
:1034000070470368187E4007C00F70470368187E36
:10341000C0097047802302685B42117E0B4313761C
:1034200070470368588B8007C00F704702230268FB
:10343000518B0B43538370470368187EC007C00F3E
:1034400070470368188DC0B2704703681A7ED207B0
:10345000FCD589B2012019857047012203689A754D
:103460007047012203681A757047012302681168CA
:103470000B43136003681A68D207FCD4DA69D207D9
:10348000F9D470470223026811680B431360026885
:10349000D3699B07FCD470470368DA699207FCD4B0
:1034A00002211A688A431A6070470268936A5B0AAD
:1034B0005B020B43936203681A7E5207FCD5986A3D
:1034C000C0B2704710B50548490001F017FD80B241
:1034D000002801D0013880B2C0B210BD006CDC02FF
:1034E00070B50C00012611006308026833403440B7
:1034F000156824075B0723432B4313600468FFF719
:10350000E1FF207370BD00000368104A934213D09E
:103510000F4A934212D00F4A934211D00E4A93425F
:1035200010D00E4A93420FD001200D4A40429342E0
:1035300001D1063040B270470020FBE70120F9E7D7
:103540000220F7E70320F5E70420F3E70008004234
:10355000000C00420010004200140042001800421B
:10356000001C0042F8B5FFF7CFFF00282CDB1D4BF5
:10357000C000181805230479C3560320FF22184001
:10358000C0008240C021D2438140002B1DDB1F259B
:1035900001201D40C026A840134D7600A851C0262A
:1035A0009B089B005B19B6009F593A401143995103
:1035B00028603F2323408024E4011C430B4B5C80A4
:1035C0005A7852B2002AFBDBF8BD0F200340083BBB
:1035D00007489B089B001B18D86902401143D9611A
:1035E000E7E7C046A0A3000000E100E0000C0040B7
:1035F00000ED00E0F8B504000F0016001D00FFF715
:10360000B1FF2000FFF7DAFE1C21BB000B40710761
:103610002268090C0B431360842322689375012FE1
:103620001AD11021012E00D008390C4B69431868BB
:10363000C00001F063FC0722216802408B8952031D
:10364000DB04DB0C13438B81226803049089DB0CC1
:10365000400B400318439081F8BDC0460000002095
:10366000F7B50500019308AB0C0016001F78FFF7B3
:10367000FCFE2800FFF776FFC021C0228902240447
:103680000C409203BF073605274316403E430C27E4
:1036900007222B683E431E60019B296813401A00D5
:1036A00080239B0213434B602A68D3695B07FCD4D9
:1036B000F7BD3F20704713B56B460268D9710733D9
:1036C000546819000122A04716BD10B502210069F7
:1036D00000F02AFC10BD10B50321006900F03AFC8F
:1036E00010BD000010B51300084A0400D279002A6A
:1036F00003D101230020636010BD0A00006903218B
:1037000000F020FD0028F4D0F6E7C0460C000020B1
:1037100010B5054C03002068421C04D11A6818003B
:1037200052699047206010BD58000020074A0300EE
:10373000106810B5411C03D001235B42136010BD1B
:103740000221186900F0F0FCF9E7C046580000209B
:1037500010B503784222023303700249024800F098
:103760009DFD10BD140000205408002010B5017804
:10377000030042780020A12908D1212A05D1174948
:1037800017481A3A00F08AFD012010BD2129FCD10A
:10379000202A13D111491248193A00F01FFC962231
:1037A0000E4BD200196891420ED1DA7901231A42E8
:1037B0000AD1FA20FFF788FD0020E6E7222A06D189
:1037C0009A78064BDA71EAE7FFF784FDF4E7232ADB
:1037D000DBD15A88034B1A60D7E7C0460C000020A3
:1037E000540800200800002070470000FA22002141
:1037F000054B92009A60054A08321A60044A5960E3
:103800001A6119767047C04638080020D0A300001E
:1038100054080020704770B50F26CB1D02003240BF
:10382000D5B22C0000093034092A00DD07341C70A1
:103830005A1E994200D170BD1300EFE710B5040085
:10384000806903F033FDA06A03F030FD200010BD55
:1038500010B50400FFF7F2FF200001F071FA20001C
:1038600010BD000070B5032908D1324B8000C0584C
:10387000002802D00368DB68984770BD82291FD1F9
:10388000C3B22D4D5A01AA1891692C4C80010C40ED
:10389000C0218905214391612949083340188021BD
:1038A00050612A685B01D0180479494221430171B3
:1038B0007020995C81430800302101439954DCE772
:1038C0000029DAD1C024C1B21B4E4A01B218936854
:1038D0001A4DA4052B40234393601A4B8001C01856
:1038E0000B0050603068072608335B01195CB14358
:1038F0000E0001213143195491690D402C4394610C
:1039000070240F495161195CA1430C00102121431F
:10391000195491680C4CC3180C4080214903214371
:1039200091609168890B89039160402259790A431B
:103930005A71A2E7580800200C0D0020FFFFFF8FEE
:1039400080080020400A0020FF3F00F0EFF31083C2
:1039500003600123436072B670470368002B02D1F5
:1039600062B6BFF36F8F704737B5056904006846CC
:10397000002D14D1FFF7EAFF019B621D013B02D32A
:10398000D57FEDB2FAE768460193FFF7E6FF002D19
:1039900001D100203EBD206AE369C01AFAE7FFF7B3
:1039A000D5FF22000025019B3432013B02D315785C
:1039B000EDB2FAE768460193FFF7CFFF002DE8D09C
:1039C000206BE36AE9E70000F0B5FF2501264268B5
:1039D000836811682B405B01CC186419A77AD3184F
:1039E0003E43A672C6689C680B4FB60436093C403D
:1039F00034439C6083682B405B01D2189468A40B0D
:103A0000A4039460402283682B4008335B01CB18E9
:103A100019790A431A71F0BDFF3F00F0F7B5056947
:103A200004000E0017006846002D43D1FFF78EFFFB
:103A3000019B601D013B5A1C0BD0C27F591E002AFE
:103A400005D168460193FFF788FF2800FEBD0B00F3
:103A5000F1E768460193FFF780FFE369AF420AD0C0
:103A6000226A9A4207D95A1CE261A269D3181B78CC
:103A700073550135F1E7226A9A42E6D10023E361EA
:103A8000013368462361FFF761FF22000021019B9B
:103A9000671D013B3532581CD3D0F97710785E1E74
:103AA000002805D0200011700193FFF78DFFECE78F
:103AB0003300F0E7FFF74AFF2000019B3430013B61
:103AC0005A1C06D00278591ED5B2002AB9D00B0074
:103AD000F6E7684601930025FFF73FFFE36ABD4222
:103AE00002D0226B9A421CD8226B9A42ADD100239D
:103AF0006846E3622361FFF729FF270022000021C7
:103B0000019B3437013B3532581C9AD039701078FC
:103B10005E1E00280DD0200011700193FFF754FFA6
:103B2000EBE75A1CE262A26AD3181B787355013581
:103B3000D4E73300E8E7F7B582684368D2B21100F2
:103B400004000831186849014118C879C00729D50F
:103B500001255201CD719B189A6861699204920CFB
:103B6000002923D12262226A002A41D0A26A65611B
:103B700068465A60FFF7EAFE342294462200019B11
:103B8000671D013BA4443532591C2DD06146FD7799
:103B90000978581ECEB2002905D0019368461570E9
:103BA000FFF7DBFEF7BD03001670EDE72263226B23
:103BB000002A1DD0002227006261A26968465A606F
:103BC000FFF7C4FE019B621D9446013B343730323F
:103BD000591C09D061463D70C97F581ECEB20029DC
:103BE000DBD103001670F3E768460193FFF7B5FEDB
:103BF0002000FFF7E9FED5E713B56A4600230C0065
:103C0000D01DD371FFF7A4FD23681818206001F0C0
:103C100011F96B46D91D01F0D9F8236818186B46C5
:103C20002060D87916BD000003290ED180220E4BEA
:103C300062311B68FF31585C524202435A54682279
:103C40006339FF32FF39995470470129FCD1802232
:103C5000054B24311B68FF31585C524202435A54D1
:103C600028222339FF32EDE70C0D002070B5002526
:103C70002F4B0121040020201D70FFF713F90121B3
:103C80002020FFF73FF92B4B01211F201D70FFF76C
:103C900009F901211F20FFF735F92023264A0F20BB
:103CA000D1690B43D361012224490B7813430B7074
:103CB000234B19788143197006211D782943197007
:103CC00020490D782A430A701A7802401A7060223F
:103CD00019780A431A701C4B1C4A5A805A78D20928
:103CE000FCD11B48FEF720FF1A4D280001F0B6F862
:103CF000280001F0C9F87F212B68C1201A788000C4
:103D00000A401A70042219780A430C211A701A8981
:103D10008A4311491A810A581202120A0A50802253
:103D20000A6019787E3A0A431A700123237070BD25
:103D30007508002074080020000400405844004129
:103D40003C44004159440041000C00400640000042
:103D5000254700000C0D002000E100E0007800285D
:103D600010D00121084B1B681A898A431A81082246
:103D7000198B0A431A830422198B0A431A830022DF
:103D8000024B1A607047C0460C0D0020040D002045
:103D90000A000E498B699B0B9B038B610B68022108
:103DA000FF3319729879823901439971197A890719
:103DB000FCD57F20064B0240997A81431143802233
:103DC0009972997A52420A439A7270470C0D0020F8
:103DD0000050004110B50B790C00002B0CD10800ED
:103DE000FFF7C4FC002801D0012010BD094A9369E7
:103DF0009B0B9B039361F7E701F01CF8210001F096
:103E000009F80028F0D1034A93699B0B9B03936147
:103E1000EBE7C0460C0D0020F7B50D001100832A1A
:103E200019D1EBB2324C5A01A21891693148AD0157
:103E30000840C0218905014391612F4920686D1810
:103E40007021083355615B011A5C8A4311004022DE
:103E50000A431A54F7BD022A45D1284AAB009858A4
:103E6000002802D003685B699847382000F064FF9F
:103E7000234B8027036000231D4E7F00421D0362F9
:103E800003614361C36146608560C760D3772F32A9
:103E9000C3620363040013703800537003F0FCF92D
:103EA0000190A061380003F0F7F9EBB25A01A0626B
:103EB000B21891680F4808330840C02189050143B2
:103EC0009160316807265B01585CAD00B043060085
:103ED000032030435854019B20005360FFF774FDCA
:103EE000064B5C51B6E72800FFF7BCFCB2E7C046C2
:103EF0000C0D0020FFFFFF8F8008002058080020D5
:103F0000FCA3000070B505000124064BA200D258A6
:103F1000002A05D021002800FFF77EFF0134F4E7D6
:103F200070BDC0465C000020084B8A00D05810B518
:103F3000002803D003689B68984710BD044BC9B2A2
:103F40004901591888688004800CF6E75808002059
:103F50000C0D002010B50C00FFF7E6FF00280CD078
:103F6000064BE4B219688023083464010C196279A5
:103F70005B42134363710223E37110BD0C0D0020FB
:103F800070B5CBB2124A13485C0189018918021935
:103F900051609168104D08330D40802189022943FA
:103FA000402591609168890B8903916001685A01ED
:103FB0008A1816793543157195796D06FCD55B0124
:103FC000C918CB79DB07FCD500198068C0B270BD79
:103FD000400A00200C0D0020FF3F00F070B51400D7
:103FE00040220B4B0D001B68FF3359790A435A716D
:103FF0000021FFF7C5FFA04200D92000002305499A
:10400000A34203D0CA5CEA540133F9E770BDC0464D
:104010000C0D0020400A002010B50C48C9B249011F
:10402000421893689B049B0C3F2B0BD99468403B30
:104030009B04A40B9B0CA403234393604118886842
:10404000C0B210BD93689B0B9B03F6E70C0D0020DC
:10405000F0B51C002F4B85B01B6806000D000192C7
:10406000002B54D02C4F3B78D9B2002B02D11F200B
:10407000FEF748FF64233B70284BAA00D058002865
:1040800008D0036822005B6801999847040020006B
:1040900005B0F0BD29003000FFF746FF844204D987
:1040A00029003000FFF740FF040029003000FFF72F
:1040B000B3FF0121EBB21A4F03935B010293029A03
:1040C0003B6801989B18FF335A7A0A435A72154B82
:1040D000A9012200C91803F0F3F8002CD7D0290059
:1040E0003000FFF721FF0028D1D14021039B3A681F
:1040F00008335B01D3181879014319710121D97173
:10410000029BD318FF339A7A0A439A72BFE70124BD
:104110006442BCE7040D0020740800205808002009
:104120000C0D0020400A002013B56B46DC1D220058
:104130000123FFF78DFF012801D1207816BD012052
:104140004042FBE7F0B51C003A4B85B01B680E00FF
:104150000192002B3FD08023DB019C423BD8364D9F
:104160002B78D9B2002B02D12020FEF7CBFE64239E
:1041700000272B70314BB201D3180293002C2CD0A6
:104180002F4B1B680393FF2333401D00009308351A
:10419000039B6D015D19AB79DB0921D0294B2A49BD
:1041A000186800F0ABFE294B1721584300F0A6FE1B
:1041B000274BEA79920713D49A5D002A01D101387E
:1041C000F7D201229A55009B5A011D4B9B189A6900
:1041D000920B92039A6101277F42380005B0F0BD2F
:1041E00000221B4B25009A55402C00D940252A005F
:1041F0000199029803F064F8009BA9045A01104B3E
:10420000890C9B18029A7F195A619A69641B920B58
:1042100092030A439A61009B039A08335B01D31807
:104220000222DA715979823A0A435A71019B5B1969
:104230000193A3E7040D00207508002080080020EA
:104240000C0D00200000002040420F007011010002
:104250007708002070B50C001D000D4BA601F61864
:10426000110030002A0003F02BF8E4B2094A64017F
:1042700014196661A369084928000B40A361A1696C
:10428000AB04890B9B0C89031943A16170BDC04627
:10429000800800200C0D0020FF3F00F0F7B5104B08
:1042A0000F001B7814000190002B0CD10D4B160051
:1042B0001D78002D09D00C4E0C48358828182D1972
:1042C00002F0FEFF35802000FEBD002EFBD0330043
:1042D0007A1900210198FFF7BDFF2D18361AF4E76F
:1042E000000C0020010D0020020D0020010C002018
:1042F000F8B500200D00140000AF012A27D9D31D06
:104300006A46DB08DB00D31A9D46080003F0D8FE9E
:104310006E4603230222002101304000307073708A
:10432000A2420DD2287800280AD0531CDBB20135F6
:10433000B0549C4203D00232F154D2B2F0E72200D2
:1043400031000448FFF7AAFF431E9841C0B2BD46A2
:10435000F8BDC04654080020F0B50025012785B0FF
:10436000184B0E0069461F7004000095FFF744FCCF
:10437000154B01A90B806A3BFF3BCB716E3B0B7267
:10438000009B320009334B800E4B8D714F710871C9
:104390001D70092E0FD00D4E092237700C4F2000D2
:1043A00000953D80FFF77AFF69462000FFF724FC67
:1043B0003A88084935702000FFF770FF012005B0EA
:1043C000F0BDC046000C002009020000010D0020D5
:1043D000020D0020010C0020F0B5CF7805000E0082
:1043E00093B0022F09D1C9882B48FFF7B5FF441EAF
:1043F000A041C4B2200013B0F0BD00F01BFD31009D
:1044000000F0F8FC002803D0C417241AE40FF1E7E9
:10441000012F0BD1F2882149112A11D8D2B2002ADA
:104420000ED02800FFF73AFF0124E3E70400032F32
:10443000E0D1B378002B05D1F2881949032AEDD9D0
:104440000A78EEE7022B06D1B27916492800FFF769
:104450004FFF0400CEE7012B02D1B2791249F5E7F4
:10446000032BC7D1114B01A91868FFF7D4F9104BE2
:1044700003A91868FFF7CFF90E4B05A91868FFF7D5
:10448000CAF90D4B07A91868FFF7C5F96B46053344
:10449000DC77B27901A9D9E75408002035A40000DF
:1044A00028A4000014A400002CA400000CA080008C
:1044B00040A0800044A0800048A0800037B50500DF
:1044C00048780C000B2810D800F00EFD061B0F31A9
:1044D0000F484D7551546E71097801AA002906D113
:1044E000022311802800FFF7B5FE01203EBD002306
:1044F0001380324B1B78012B00D113700223002153
:10450000F0E78A780023012A09D16A4693802C4B70
:104510001B78012B00D11371022301AAEFE7274A70
:104520001370284A93699B0B9B039361DDE78C789A
:10453000012C07D1224B01AA1C70234B1B7813704E
:104540002300DCE700208442D0D11C4B01301D4AFF
:10455000187093699B0B9B039361C7E728008978C8
:10456000FFF716FCC1E72800FFF736FFBEE701237F
:10457000164AC4E70B780020DB06B7D12800FFF706
:10458000C1FC2A200221A278104BFF301A600D4A8C
:1045900013681C5C21434A241954FF34195D2938DF
:1045A000FF3801431955D4E70123094AA7E78A7860
:1045B000074B1A60B5E7002098E7C0467608002050
:1045C0007E0800200C0D0020659E0000040D0020D8
:1045D000080D00204B4BF7B51C780700002C00D0CD
:1045E00083E0494E33689B8B1B070ED521002000CA
:1045F000FFF738F9326810231100FF31887A03433E
:104600008B72424B1C600823938333689A8B52074A
:104610001FD504229A833E4A1378002B0AD01378C0
:10462000013BDBB213701378002B03D10121202052
:10463000FEF768FC374A1378002B0AD01378013B49
:10464000DBB213701378002B03D101211F20FEF77A
:1046500059FC3368FF331A7AD2061ED510221A721B
:10466000597930320A435A7160232B4938000A784D
:104670001A423BD1FFF722FF3368FF33002838D0BE
:104680008022997952420A439A711A7A520604D5C5
:1046900040221A72597A0A435A72336800241D8CD8
:1046A00001239D43EDB20193E1B2002D1DD02B00FB
:1046B0002341019A134215D02300326808335B016D
:1046C000D318DA79D20702D4DB799B0707D5134BCD
:1046D000A200D058002810D003681B689847019B9F
:1046E000A3409D430134092CDED1F7BDFFF772FBD7
:1046F000C2E720210A4A9171C7E73800FFF794FA10
:10470000EDE7C046010D00200C0D0020040D002037
:104710007508002074080020400A00205808002076
:10472000FF50004110B50248FFF754FF10BDC046CE
:1047300054080020014B024A1A6070470C0D0020FB
:10474000005000410120704710B50368014A1B6A00
:10475000984710BD130400000300FC33D96F9A6F13
:10476000914203D0DB6FC018007D704701204042AA
:10477000FBE710B504000069FEF720FE22000023CD
:10478000FC329367D3679E229200A4186366A366E7
:1047900010BDF0231B011940802306209B00994285
:1047A0000AD00133FF330130994205D08023002025
:1047B0005B00994200D1053070470F200140002076
:1047C000012903D00239481E8141481C704700006E
:1047D000B923F0B5182785B002919B000400C05C96
:1047E0003B0008214343324E1500F3185956FEF79B
:1047F000CDFB304B0821E05C3B004343F318595696
:10480000FEF7C4FB2C4BE25C0393022A09D111335F
:10481000E05CFF2805D008214743F7197956FEF7D9
:10482000B5FBBA27BF00E05DFF2819D00121FEF7D4
:1048300039FB1822E35D21495A43B356B618DB0110
:104840005818BB21890060501D4901225B18BC210A
:104850008900635071688A40BD21890062501A60E6
:104860000122029B11002069FEF7C4FE29002000EE
:10487000FFF78FFF290006002000FFF79EFFF022C0
:104880001540303D6A425541030031002069012244
:104890000095FEF763FD0B4B2069E25C039BE15C36
:1048A000FEF779FD2069FEF796FD05B0F0BDC04624
:1048B000849F0000E5020000E70200001844004168
:1048C00014440041E6020000AF2210B504000021AC
:1048D000520002F0FEFC23000022FC3320005A6646
:1048E0009A6610BDF7B51D0008AB1B780400009355
:1048F00009AB1B781600019300234360FA239B0049
:104900008360104B0F00083303601430FFF7DCFFA7
:1049100020007D30FF30FFF7D7FFB9239B002761D0
:10492000E654094B009AE554084B2000E254019AE2
:10493000074BE254BA22E93BFF3B9200A3541032EA
:10494000A354FEBD48A40000E5020000E6020000FA
:10495000E70200000300FC33586E9B6EC01A01D5BD
:104960005F30FF30704710B5040020007D30FF300D
:10497000FFF7F0FF0028F8D12069FEF736FD10BDE3
:1049800010B51430FFF7E6FF10BD0300FC33596E7D
:104990009A6E914205DB5A6E986E801A5E30FF3037
:1049A0007047986E5B6EC01A0138F9E710B57D301C
:1049B000FF30FFF7EAFF10BD70B504000069FEF795
:1049C00030FD002805D02069FEF73BFD2069FEF789
:1049D0002DFD2069FEF715FD002824D02500206953
:1049E000FEF72FFDAF21FC350600A86F490001300E
:1049F00000F00AFBEB6F994203D0AB6FE3181E7512
:104A0000A967BA239B00E35CFF2B0CD02000143075
:104A1000FFF7BBFF092806DCBB23BD229B009200E9
:104A2000E358A2581A602069FEF706FD00281DD041
:104A300020007D30FF30FFF78DFF002825D09E231A
:104A40009B00E618B26E736E9A421BD0BE22AF2155
:104A5000B36EB06EE3185200013049009D5C00F067
:104A6000D3FAB1662069E9B2FEF7EFFC2069FEF7E0
:104A7000CDFC002805D02069FEF7CCFC2069FEF7AC
:104A8000BCFC70BD01256D42ECE72069FEF7E9FC36
:104A9000ECE70000F7B5040000690E00FEF7CCFC5F
:104AA000002847D1AF277F009E239B00E518686E42
:104AB000AB6E39000130019300F0A6FA019B9942D8
:104AC00024D1EFF31083DB070ED4204B5B68DB05AA
:104AD000DA0D002BE8D0103A53B212060DD49B0821
:104AE0001B4AC0339B009B582069FEF7A5FC002899
:104AF000DAD02000FFF760FFD6E70F221340083B13
:104B0000144A9B089B009B181B68EDE7AF21686E59
:104B10004900013000F078FAAB6E994205D0BE2210
:104B20006B6E5200E3189E5469662069FEF795FC8F
:104B30000120FEBD20007D30FF30FFF70BFF002875
:104B4000B0D131002069FEF780FCF1E700ED00E014
:104B500000E100E01CED00E070B50500FC35EA6FF7
:104B6000AB6F04009A421DD0AF21EB6F4900C31810
:104B7000E86F1E7D013000F047FAE967BA239B0019
:104B8000E35CFF2B0CD020001430FFF7FEFE0A2858
:104B900006DDBC23BD229B009200E358A2581A6098
:104BA000300070BD01267642E8E710B504000068C9
:104BB00002F07CFB200010BD10B504000068002846
:104BC00001D002F073FB00232360A360636010BD7B
:104BD00070B504000D000068013103F04DFA031EAA
:104BE00001D0012028C470BD036810B50400002B5B
:104BF00004D043688B4201D3012010BD2000FFF791
:104C0000E7FF0028F9D0A368002BF5D122681370C4
:104C1000F2E770B50E00110004001500FFF7E4FF85
:104C2000002804D12000FFF7C7FF200070BD31002D
:104C30002068A56003F03CFAF7E7002370B5040094
:104C40000D00036043608360994207D0080003F0C1
:104C500037FA290002002000FFF7DBFF200070BDBB
:104C600070B504000D1E09D0080003F029FA2900D0
:104C700002002000FFF7CDFF200070BDFFF79CFF72
:104C8000FAE710B5002304008AB023606360A360D4
:104C9000080001A900F058F8200001A9FFF7E0FF83
:104CA00020000AB010BDF8B504000E1E02D1002786
:104CB0003800F8BD0127002AFAD08368D5182900EA
:104CC000FFF792FF0028F2D02368A26831009818FD
:104CD00003F0EEF9A560EBE710B58A6809680400F7
:104CE000FFF7E1FF002802D12000FFF765FF200059
:104CF00010BD704710B5FEF721F802F09FFAFFF7DC
:104D0000F8FF0120FDF746FF094C2000FEF7AEFF3B
:104D10002000FFF723F8FDF741FAFDF765FAFDF7EC
:104D200059FF044B002BF8D000E000BFF5E7C04668
:104D3000540800200000000010B502F0ADFA10BDCC
:104D400010B502F0B3FA10BDF0B50C0017008DB02D
:104D5000002920D0931E222B36D80A2A1ED10028E3
:104D60001CDA0123404203AE35000193002817D11D
:104D7000AE4215D0019B2200002B02D02D23621CD5
:104D8000237011002B00B34219D800210B00AE4252
:104D900000D8AB1BD15420000DB0F0BD0023E2E7DA
:104DA000390000F031F9CAB213005733DBB20929D8
:104DB00002D813003033DBB22B700135D6E7013B4C
:104DC000187808700131DEE70024E4E770B50E00C2
:104DD00000254468002C0BD02368310020005B685C
:104DE0009847002802DBE4682D18F3E701256D429F
:104DF000280070BD70B50D004468002C08D02368F1
:104E0000290020009B689847002802D1E468F4E755
:104E1000200070BD70B50D004468002C08D02368D8
:104E2000290020001B689847002802D1E468F4E7B5
:104E3000200070BD064A0123116810B50C0005481A
:104E40001C40194203D1044944600180136010BD25
:104E5000100E0020140E00200204000070B50400A3
:104E6000012320CC00212A782000134380222B70BC
:104E7000520002F02EFAAB78DB07FCD4AB789B072C
:104E8000F9D46C6270BD00001F22144B70B51B6812
:104E9000590B9C0C9B0111405B0F22401F2900D134
:104EA0001A391F2A00D1023A072B00D1043B1F25D3
:104EB00000688E01048D0A492A4021403143018552
:104EC000018D14000A00AA4322430285028D1903B2
:104ED000044B13400B43038570BDC0462460800023
:104EE0003FF8FFFFFF8FFFFF02B4714649084900FA
:104EF000095C49008E4402BC7047C046002243084A
:104F00008B4274D303098B425FD3030A8B4244D391
:104F1000030B8B4228D3030C8B420DD3FF220902D3
:104F200012BA030C8B4202D31212090265D0030B92
:104F30008B4219D300E0090AC30B8B4201D3CB0388
:104F4000C01A5241830B8B4201D38B03C01A5241CA
:104F5000430B8B4201D34B03C01A5241030B8B42CC
:104F600001D30B03C01A5241C30A8B4201D3CB02B7
:104F7000C01A5241830A8B4201D38B02C01A52419C
:104F8000430A8B4201D34B02C01A5241030A8B429F
:104F900001D30B02C01A5241CDD2C3098B4201D3B7
:104FA000CB01C01A524183098B4201D38B01C01A35
:104FB000524143098B4201D34B01C01A52410309AC
:104FC0008B4201D30B01C01A5241C3088B4201D35B
:104FD000CB00C01A524183088B4201D38B00C01A08
:104FE000524143088B4201D34B00C01A5241411A2F
:104FF00000D20146524110467047FFE701B500203C
:1050000000F0F0F802BDC0460029F7D076E77047FF
:1050100003460B437FD4002243088B4274D3030919
:105020008B425FD3030A8B4244D3030B8B4228D3BA
:10503000030C8B420DD3FF22090212BA030C8B42E0
:1050400002D31212090265D0030B8B4219D300E080
:10505000090AC30B8B4201D3CB03C01A5241830B05
:105060008B4201D38B03C01A5241430B8B4201D3B5
:105070004B03C01A5241030B8B4201D30B03C01ADE
:105080005241C30A8B4201D3CB02C01A5241830A58
:105090008B4201D38B02C01A5241430A8B4201D387
:1050A0004B02C01A5241030A8B4201D30B02C01AB1
:1050B0005241CDD2C3098B4201D3CB01C01A524118
:1050C00083098B4201D38B01C01A524143098B42A1
:1050D00001D34B01C01A524103098B4201D30B018A
:1050E000C01A5241C3088B4201D3CB00C01A5241AF
:1050F00083088B4201D38B00C01A524143088B4274
:1051000001D34B00C01A5241411A00D2014652410C
:10511000104670475DE0CA0F00D04942031000D32B
:105120004042534000229C4603098B422DD3030A80
:105130008B4212D3FC22890112BA030A8B420CD390
:10514000890192118B4208D3890192118B4204D3B9
:1051500089013AD0921100E08909C3098B4201D339
:10516000CB01C01A524183098B4201D38B01C01A73
:10517000524143098B4201D34B01C01A52410309EA
:105180008B4201D30B01C01A5241C3088B4201D399
:10519000CB00C01A524183088B4201D38B00C01A46
:1051A0005241D9D243088B4201D34B00C01A52411D
:1051B000411A00D20146634652415B10104601D3AA
:1051C0004042002B00D54942704763465B1000D334
:1051D000404201B5002000F005F802BD0029F8D0DA
:1051E00016E770477047C0468446101C62468C46DE
:1051F000191C634600E0C0461FB501F0A3F8002863
:1052000001D40021C8421FBD10B500F0EDFF40429F
:10521000013010BD10B501F095F8002801DB002029
:1052200010BD012010BDC04610B501F08BF800285C
:1052300001DD002010BD012010BDC04610B501F0F9
:105240000FF8002801DC002010BD012010BDC04671
:1052500010B501F005F8002801DA002010BD01208A
:1052600010BDC04670B500220C4B04000D00FFF7C6
:10527000EFFF002804D12000290001F0EFFE70BDEF
:10528000064B00222000290001F038FB01F0E6FE69
:1052900080231B069C466044F1E7C0460000E041C5
:1052A000F0B54F464646D6464502C0B547000C1CF1
:1052B0006D0A3F0EC60F002F66D0FF2F6CD0002363
:1052C000EA00802599469A46ED0415437F3F600227
:1052D0006100430A9846090EE40F002948D0FF29CF
:1052E00010D08022D800D2040243904600207F399B
:1052F0004A4633007F1A02436C4992008A58634041
:10530000DBB29746002B6DD10220FF3F33E0002334
:1053100098462600454682465346022B00D17FE040
:10532000032B00D194E0012B17D038007F300028E8
:105330005FDD6B0704D00F232B40042B00D0043516
:105340002B0103D538005A4B80301D40FE2867DC06
:10535000AD016D0AC0B202E01E0000200025C005AC
:105360002843F60730431CBC90469946A246F0BD40
:10537000002B2BD101204A4633004E4902439200B4
:105380008A586340DBB29746002D13D10423994617
:10539000033B00279A469AE7002D05D1082399463A
:1053A000063BFF279A4692E70C239946093BFF27C5
:1053B0009A468CE7280001F0F5FE7627431F9D40B2
:1053C00000237F4299469A463F1A80E7180001F071
:1053D000E9FE4246431F76219A404942091A904607
:1053E000002085E7FF21032082E71E00FF20002523
:1053F000B5E701231B1A1B2BAFDC9E372900BD40EC
:10540000D9406A1E95410D436B0704D00F232B40F2
:10541000042B00D004356B0144D5012000259EE704
:10542000FF2000259BE780250026FF20ED0396E75F
:10543000002398468020C003054209D0434603421A
:1054400006D1454605436D022600FF206D0A86E71A
:105450008020C00305436D02FF206D0A7FE74146AF
:105460006A014801824219D21B210025013F012611
:1054700014006D005200002C01DB904201D8121A7A
:10548000354301390029F3D1501E824138007F3065
:105490001E001543002800DD4BE7AAE71A2101256D
:1054A000121AE4E7AD0100206D0A58E77CA4000061
:1054B000FFFFFFF7BCA4000070B5002813D0C3178E
:1054C000C5185D40C40F280001F06CFE9E2301004A
:1054D0001B1A962B0FDC082801DD08398D406D0260
:1054E0006D0AD8B202E0002400200025C005284340
:1054F000E407204370BD992B0BDD05222E00121A04
:10550000D64002001B3295402800451EA8413500B8
:105510000543052901DD4A1F95402A00084E324007
:10552000680709D00F202840042805D00432500114
:1055300002D59F2332405B1A9201550AD8B2D5E7B3
:10554000FFFFFFFBF0B54F46D64646460D00010073
:105550001800C0B517002B035A0A4B0F1343CA009B
:10556000914602036E004100520AEC0F7D0F154375
:10557000760D490DC00F8246AC46FF00721A844278
:1055800000D198E0002A00DC81E0002900D1B6E0DB
:10559000C9498E4200D172E18021280009040843E4
:1055A0008446382A00DD5EE11F2A00DDEEE120207E
:1055B00039006546801A8740D14085400D43390047
:1055C0004F1EB9416746D7402943DB1B4A46551A4F
:1055D000A945894149425B1A984643461B0200D4BB
:1055E000CCE043465B025B0A98464346002B00D161
:1055F0002CE1404601F0D6FD0100083920222800A8
:105600004346521A8B40D0408D4003438E4200DD0A
:1056100017E18E1B721C1F2A00DDA7E12021180054
:105620002E00891A8D408840D640D340691E8D4196
:1056300030439846002605436B0709D00F232B40C3
:10564000042B05D02B1DAB42AD416D42A8441D007B
:1056500043461B0200D494E0974B721C9A4200D13F
:105660009DE04146954BED0819400B005205490756
:105670005B0229431B0B520D12051343E40723431E
:10568000080019001CBC90469946A246F0BD002AAD
:1056900043D08A1B002E00D02AE14C461C4300D187
:1056A000D1E1541E012A00D11FE2834DAA4200D14C
:1056B00072E2220023E1002A00DC98E0002942D0B7
:1056C0007D498E4200D1DAE0802128000904084398
:1056D0008446382A00DD29E11F2A00DC87E1110019
:1056E00065462039CD40202A04D040206146821AE8
:1056F00091400F4339004F1EB9410D431BE1290072
:10570000394300D1B5E0511E012A00D1ABE16A480E
:10571000824200D1B2E10A0043E76949751C0D429B
:1057200000D0CFE0002E00D093E14946194300D1CC
:10573000D1E16146394300D0E3E149465807C90841
:105740000143DB0826E02900394300D191E0511ED6
:10575000012A05D05848824200D18FE10A00B8E7FB
:105760003D004D444D458941634498464942884433
:10577000434602261B0200D5EBE0013E6B0700D03A
:105780005CE74346E9085A0711433200DB084A4800
:10579000824221D01B0352051B0B520D6CE70023E4
:1057A000002169E72A003A4369D04A465807D108E0
:1057B000DA0880231B0308431A4207D02900ED08AA
:1057C0001D4203D12A00FF0848073843430FC10098
:1057D0005B07C908194313000A001A4300D113E2FA
:1057E0008022120313431B03334A1B0B44E7002A96
:1057F0004BD08A1B002E00D1E7E02F48814200D118
:1058000095E1802000040343382A00DD43E11F2A8C
:1058100000DDDBE120201D004E46801A8540D64089
:1058200035434E4686403000D340461EB0419C442E
:105830000543ED19BD429B415B42634498460E000F
:105840007FE01E4A761A13409846F5E6280001F0DC
:10585000A9FC010018311F2900DCCFE62B00083815
:1058600083400025D2E662463A4311004F1EB941FB
:10587000ACE649465807C9080143DB0887E74946B3
:105880005A07C9081143DB08A6E70D49701C0842F6
:1058900000D0BBE0002E00D014E14946194300D1EE
:1058A00075E12900394300D07EE149465807C9080F
:1058B0000143DB086EE7C046FF070000FFFF7FFFE4
:1058C000FE0700004946CD1B6146581AA94589418B
:1058D0004942884601004046091A8846090200D517
:1058E000A6E04146294300D07FE60023002451E78B
:1058F000C74CA14200D1C7E0802424042343382AA6
:1059000054DC1F2A00DDCCE020244846A41A1D00E8
:105910004E46A040D640A5400400D34062463543E1
:10592000661EB441D31A9C46254344E062463A437E
:1059300015006F1EBD414D444D4589414942884681
:10594000984443461B0200D418E7B14B01369E42EF
:1059500049D04246AF4B01211A4013006A080D405E
:105960001543D9075B0898460D4365E618001F3EAE
:10597000F040202A03D040218A1A93401D43691E1B
:105980008D410023002698460543F7E61100654641
:105990002039CD40202A04D040206146821A91400F
:1059A0000F4339004F1EB94129430FE64A461343BE
:1059B0001D006B1E9D417D1BAF429B4162465B42B9
:1059C000D31A984654460E0007E64846184300D1BD
:1059D000B3E0501E012A00D10DE18D4DAA4200D145
:1059E000A5E0020010E732000023002144E6202158
:1059F0003800891A65468F408D40D040791E8F410E
:105A000005433D436746D740DB1994E7804A9042FF
:105A100000D1ECE039004944494592416344524287
:105A20009B18DD0749085B08984606000D43A5E66C
:105A30004A46BD1AAF42894162464942D31A5B1AAF
:105A400098465446D1E56C07F9082143EB08040059
:105A50009DE64A461A4375D16146394314D18023E5
:105A600000241B03BCE64A46D51BA9458941624672
:105A700049429B1A5B1A98460126AEE54A46D10870
:105A80005A071143DB08A7E66346F9085A0754464C
:105A90001143DB08A0E64A4613431D006B1E9D41DF
:105AA000C7E614001E00203CE640202A05D0402412
:105AB000A21A93404A461A4391464D466B1E9D4199
:105AC000354378E74A461A4300D06BE66B07F9087E
:105AD0001943EB0880E66146394354D06346F90820
:105AE0005C072143DB08040054E64A46BD1AAF4276
:105AF000894162464942D31A5B1A9846040001263E
:105B00006BE54A46D51BA9458941624649429A1A26
:105B1000521A9046120232D54A46BD1AAF42894106
:105B200062464942D31A5B1A9846040084E56346EC
:105B3000F9085A071143DB084EE6F90868070143E4
:105B4000EB0824E662463A4300D198E64A46D1087B
:105B50005A071143DA0880231B031A4208D0604613
:105B6000C5081D4204D154462A00F90843071943C9
:105B70004B0FC9005B07C908194313002CE64146C7
:105B8000294300D0FAE500230A00002402E66B074F
:105B9000F9081943EB08FDE56346F9085B0719436B
:105BA00063460400DB0817E63D004D4463444D4561
:105BB000894198464942884443461B0200D4DDE5AA
:105BC0004246144B01261A409046D7E510001E00AD
:105BD0002038C640202A05D04020821A93404A46E9
:105BE0001A4391464D466B1E9D41354321E6020006
:105BF0000023002140E54A46D519BD42894163444E
:105C0000984649428844B3E50021014A0B0033E538
:105C1000FF070000FFFF7FFFF0B557464E464546A1
:105C2000DE46E0B5814605000C03480092461F00A1
:105C300085B0240B400DCE0F002859D0874B9842D9
:105C400000D198E06B0FE4001C4380231B04234326
:105C50009846834BED009B4600239946834400936E
:105C60003C037B005046240B5B0DFF0F002B67D0DD
:105C70007A4A934218D07A49420F8C46E40059463A
:105C80001443802263441204CB1A14439B46C2007F
:105C9000002033007B409A464B460F2B00D9EFE0A3
:105CA00070499B00CB589F466F4B52469C462243FF
:105CB000E344002A00D095E049460223194389466F
:105CC00000240220E5E700230024002552461B059E
:105CD0002343D20713432800190005B03CBC90466B
:105CE0009946A246AB46F0BD002400255B4BEDE78C
:105CF0004B462343984600D189E0002C00D1E0E1D7
:105D0000200001F04FFA010002000B391D235B1A3D
:105D100049461000D940083884400B004D462343C3
:105D20009846854051483C03831A9B460023994678
:105D300000937B005046240B5B0DFF0F002B97D187
:105D40005246224355D0002C00D1CAE1200001F078
:105D500029FA02000B3A1D2301009B1A524608390A
:105D6000DA408C40144352468A40414B58449B468B
:105D7000834400208DE74B462343984640D10823B7
:105D80009946063B00258346009369E7B246009B8F
:105D9000022BA9D0032B00D111E2012B93D0354A5D
:105DA0005A44002A00DC3CE16B0700D0A7E1ED0873
:105DB0004346DB0106D542462F4B1A4090468022CF
:105DC000D2005A442D4B9A428EDC43465205580766
:105DD0005C020543240B530D78E7BA46A046150034
:105DE0000090D4E74A4603231A43914603205246C3
:105DF0004FE749460123194389460024012048E71B
:105E00000C239946093BA0468346009328E70423C8
:105E1000994600239B4601330025009320E7002389
:105E200080249A4600250D4B24034FE780234146EA
:105E30001B03194208D01C4206D11C432403BA4656
:105E40001500064B240B41E78024434624031C43E2
:105E50002403B246014B240B38E7C046FF0700007D
:105E600001FCFFFFFCA4000001F8FFFF0DFCFFFF99
:105E7000F3030000FF030000FFFFFFFEFE0700002A
:105E8000444500D216E100D111E101235B429C465A
:105E90002E0040460025E3442302140E1C431B0C35
:105EA000994623041F0C1202494600920197FFF7FE
:105EB000ABF802007A430B04310C804619438A4246
:105EC0000BD901235B429C460919E0448C4204D85B
:105ED0008A4202D9831E98460919881A4946FFF753
:105EE00093F809048C4631046646019A090C424332
:105EF000030031438A4204D90919013B8C4200D87E
:105F000011E1891A4246009E12041A43330C1F0005
:105F1000100C9046029313043204160C32001B0C32
:105F20005A4303967B4346437843170CBC469B1960
:105F300063449E4203D980267602B44660441E0C18
:105F4000301816041B04360C9E19814200D29CE0C6
:105F500000D197E0AE1B091AB54280414042081AB1
:105F6000844200D111E14946FFF74EF8019A0B0433
:105F70004243310C050019438A4207D90919013DF2
:105F80008C4203D88A4201D9851E0919881A4946CC
:105F9000FFF73AF809048C4631046646019A090C69
:105FA0004243030031438A4207D90919013B8C421D
:105FB00003D88A4201D9831E0919039E891A320027
:105FC0002D041D43029F2B041B0C5A437B439C460C
:105FD000280C4643130CB444634478439E4203D9CF
:105FE00080267602B44660441E0C12041B04120C78
:105FF00030189B18814206D302D001231D43CEE600
:10600000002B00D1CBE661186E1EA14200D2A4E0A5
:10601000814200D2C9E000D1D9E03500EDE7012589
:106020006D420121891A382900DD4CE61F2900DC68
:106030007FE01F235B429A1A4346D340202904D0B5
:106040004446654A5A44944025436A1E95410722B6
:106050002B43150000241D401A4200D1A1E00F225D
:1060600000241A40042A00D198E01A1D9A429B414C
:106070005B42E4181300220200D48FE001230024C5
:10608000002523E6B54200D364E743465A1E009B31
:106090009C4665441F009D429B415B421B19C918E9
:1060A0008C423AD2884263D860D0904652E7AA42E6
:1060B00000D9EAE64346DE0758086B081E43ED07A1
:1060C000EAE6484601F06EF8010002001531203280
:1060D0001C2900DC1AE64B46083883400025984608
:1060E00020E601F05FF803001A00153220301C2A68
:1060F00000DC30E65446083B00229C4035E60F2386
:106100002B40042B00D152E605235B42AB429B415E
:1061100004355B42ED0898444AE68C42C5D1AF4253
:10612000C0D9904616E78A4200D8EAE6831E0919CC
:10613000E7E62A4A28005A44434695409340C8401F
:106140006A1E9541444603432B43CC405A0792D0E4
:106150000F221A40042A88D18DE73500814200D0F1
:106160004BE7009A934200D047E718E6AE429CD92D
:1061700002235B429C46009BE0449C4665449D4252
:106180009B415B421B19C918E4E6154A5A44002A90
:1061900000DC44E701230025984409E66507640212
:1061A000240BDB081D43002390E5009E023D720096
:1061B000B242BF417F423C1909190092CEE78024C8
:1061C000434624031C432403064B240B7EE5009A1C
:1061D0009A42EAD33500C4E73E0400001E040000E2
:1061E000FF030000FF070000F0B54F464646D646C5
:1061F000944691461A03120B184DC0B54C000F037C
:1062000092465A00060080463F0B0120640DC90FDC
:10621000520DDB0FAC420AD0AA4203D0944201D106
:1062200057450DD01CBC90469946A246F0BD3D0096
:106230003543F7D1A242F5D1524665462A43F1D102
:106240000120C845EED1994206D0002CEAD13E4348
:106250003000461EB041E5E70020E3E7FF070000FD
:10626000F0B54E4645465746DE4604001800E0B5F8
:1062700016001B031B0B324D0F034A0099464300C7
:10628000A446B0463F0B520DC90F5B0DC00FAA428A
:1062900029D0AB4218D0002A2AD13C43A3466542FC
:1062A0006541002B02D14C46264327D0002D15D145
:1062B000814228D002200139084001383CBC904678
:1062C0009946A246AB46F0BD4D462E432FD1002A3B
:1062D000EED13C4365426541002DE9D00028EDD167
:1062E00001204042EAE73D00254320D19342EBD014
:1062F000002BDDD14C462643DAD1DBE75B4600209C
:10630000002BDBD0D6E79A420ADCE7DB4F45D1D839
:1063100010D000204F45D1D20029E1D00800CDE7B0
:10632000434258410223404218400138C6E7022048
:106330004042C3E7C445BDD80020C445BED2EBE708
:10634000FF070000F0B54E4645465746DE460400BE
:106350001800E0B516001B031B0B314D0F034A005C
:1063600099464300A446B0463F0B520DC90F5B0D42
:10637000C00FAA4211D0AB4214D0002A2FD13C4307
:10638000A34665426541002B14D14C46264311D1EA
:106390005B460020002B17D010E03D00254312D1B2
:1063A00093421CD14D462E430DD1002A04D13C43CB
:1063B00065426541002D0DD1814216D00220013980
:1063C0000840013800E002203CBC90469946A246B5
:1063D000AB46F0BD0028F7D101204042F4E7002B86
:1063E000EAD14C462643E7D1E8E79A4206DD43422C
:1063F00058410223404218400138E5E79A42E9DB60
:106400004F45DBD806D000204F45DDD20029E3D030
:106410000800D9E7C445D1D80020C445D4D2F5E757
:10642000FF070000F0B557464E464546DE46E0B54C
:1064300098460C034B000600924687B0240B5B0D78
:10644000CF0F002B6CD0DD4A934200D186E0420F83
:10645000E4001443802212041443D94AC500944630
:1064600063440093002399469B46434642461E03DD
:10647000D20F5B0050469046360B5B0D00D178E0A2
:10648000CE4A93421DD0CE49420F8C4600996344B8
:10649000F6008C46164380229C4412046346164341
:1064A000C200002000930099434601318C464946C2
:1064B0007B4001930F2900D97EE0C24B89005958D7
:1064C0008F465246009B324300D056E1BB4900261E
:1064D0008C466344494600930223194389460220AF
:1064E000E1E7434601933400150083465B46022BE7
:1064F0005ED0032B00D1F3E1012B00D018E1002284
:1065000000240025019B12052243DB071A432800C3
:10651000110007B03CBC90469946A246AB46F0BD80
:106520002500054300D141E1002C00D1ADE1200060
:1065300000F038FE010002000B391D2310005B1A29
:106540003100350008388440D94085400C439E48CE
:10655000831A0093002399469B4686E7050025434E
:1065600000D01CE1082200930223002491469B46A0
:106570007BE75246324300D10AE1002E00D176E19A
:10658000300000F00FFE02000B3A1D2301009B1AA1
:1065900052460839DA408E40164352468A40009BE4
:1065A0008949181A03008C466344002000937AE757
:1065B00000240025814AA5E72F0C2D042D0C2B006B
:1065C000110C1204120C53439846130028007B430D
:1065D000994648434844834640460B00000C824697
:1065E00058467B4350440293814506D99A468023FE
:1065F0005B029946CA4453460293030C9B464346AA
:106600001B0400041B0C9846030043440493330C02
:1066100099462B003604360C7343984633007B436F
:106620009A464B465D435F4343465544180C401918
:10663000824503D980235B029A465744050CEB1927
:10664000059343461D042D0C00044019250C240419
:10665000240C270057436A4390462A003B0C9A4675
:106660004A436143414451448344884503D98023CC
:106670005B02984642443F040B0C3F0C0904C919C5
:10668000270098464B4677435C436E435D433B0C83
:106690009946A4194C4442440395A64204D9802348
:1066A0005B02984645440395029B3F045B441E00F1
:1066B0008342804123049846059B3F0C47449846FB
:1066C00076188E428941474440423D18A846934679
:1066D00049428A46C3449F42BF4180458041039B53
:1066E000DA449846534640427F420743240C934580
:1066F00092418A4589413F19DC0D049B75021D4377
:10670000681E85415346524249420A43BF184744D6
:10671000F60D7F0235435A023C431543FB0100D47A
:10672000C1E001216A080D401543E20715436408E2
:1067300026496144002956DD6B0709D00F222A4003
:10674000042A05D02A1DAA42AD416D4264191500E4
:10675000E30104D580211E4AC900144061441D4A4A
:10676000914200DD24E76207ED0864024905154304
:10677000240B4A0DC6E60197B8E6104A032094465A
:1067800063444A46009303231A43914652468AE6DD
:1067900049460123194389460026012083E60C223D
:1067A00000930323050091469B465EE60423994629
:1067B00000230093013300249B4656E6FF070000A8
:1067C00001FCFFFF3CA500000DFCFFFFFF030000E4
:1067D000FFFFFFFEFE070000002380240025444A3F
:1067E000019324038EE60120401A382800DD86E656
:1067F0001F285BDD1F2223005242511ACB40190093
:10680000202803D03B4A6244944025436A1E9541A8
:106810002A000A4307210D000024154011425BD0D5
:106820000F2100241140042953D0111D914292419F
:106830005242A4180A0023024BD50122002400254D
:1068400060E680231B031C4209D01E4207D133435C
:106850001C0343461500240B254A019352E680226F
:10686000120314432403224A240B01974AE600F042
:1068700099FC03001A00153220301C2A00DC84E643
:106880005646083B00229E4089E600F08BFC010042
:106890000200153120321C2900DC4EE63400083895
:1068A0000025844053E6009B9C4641E712492200A4
:1068B00061442E008D408A40C640691E8D4132439E
:1068C0002A43C4405307B6D00F2111400429ACD14C
:1068D000B1E765076402240BD2081543002211E6D4
:1068E0008022120314432403014A240B0AE6C04603
:1068F000FF0700003E0400001E040000F8B55746E4
:106900004E464546DE460400E0B51F0010000B036E
:10691000620F4E00CD0F5B0A39031343490AE200B0
:10692000440F2143C24C91469246C0007A008046F3
:10693000760D520DFF0FA24200D1B4E00124674052
:10694000BB46BD4200D188E0B41AA446002C00DC4E
:10695000B2E0002A00D1C5E0B54A964200D18BE2F0
:106960008022120411436246382A00DDA1E11F2A69
:1069700000DD16E220270C00BF1ABC400200A04632
:106980006446B840E240444614430200501E82412F
:106990006046C14022435B1A49468C1AA145924188
:1069A00052429B1A984643461B0200D417E14346C5
:1069B0005B025B0A98464346002B00D16CE14046DF
:1069C00000F0F0FB0200083A202120004346891A1B
:1069D0009340C84094400343964200DD57E1961B24
:1069E000711C1F2900DDCBE1202218002600521A5D
:1069F00094409040CE40CB40621E94413043984634
:106A000000260443630709D00F232340042B05D03D
:106A1000231DA342A4416442A0441C0043461B0220
:106A200000D4DFE0824B01369E4200D1FBE04246BB
:106A3000804BE4081A401300710552075B022243A1
:106A40001B0B490D0905ED071943294310003CBCF8
:106A500090469946A246AB46F8BDB41AA446002C0F
:106A600058DD002A00D19EE0714A964200D13BE1F8
:106A70008022120411436246382A00DDC1E01F2A39
:106A800000DCBBE10C00203AD44022006446202CFC
:106A900004D040273F1BB940084380464446611E4E
:106AA0008C411443B1E00C0004432AD0BB46BD42E4
:106AB0002DD0614CA446B4446446002C5CD0941B99
:106AC000A446002E00D015E14D461D4300D1C3E180
:106AD000651E012C00D10CE2554EB44200D1F8E104
:106AE000AC460EE10A00024300D136E12200013A31
:106AF000012C00D1C6E14E4CA44500D1F4E09446EF
:106B000031E701246740BB46BD4200D01CE74A4C38
:106B1000A446B4446446002C00D1CFE0941BA446A4
:106B2000002E00D15CE1424EB24200D1ECE1802661
:106B3000360433436446382C00DDB3E11F2C00DDFE
:106B400038E22026361B1C00B4404F46A04664465F
:106B5000E74044463C434F46B7403E00771EBE41A7
:106B600034436646F340C918241884429B415B4273
:106B70009846160088444EE0304A741C144200D0F7
:106B8000D6E04A461A43002E00D05BE1002A00D12D
:106B9000A5E10A00024300D0BBE14A465907D208EA
:106BA0000A43DB0827E00A00024300D174E1220017
:106BB000013A012C05D01E4CA44500D194E0944626
:106BC00059E74844484592415B18984604005242B0
:106BD0009044434602261B0200D5C4E0013E6307F1
:106BE00000D011E74346B4465907E2080A43DB08E0
:106BF0000F498C4540D061461B0349051B0B490DCD
:106C000020E701430C00611E8C414C444C459241ED
:106C100052429046984443461B02E0D5044B01364D
:106C20009E4200D09FE03100002300220AE7C046C8
:106C3000FF070000FFFF7FFF01F8FFFFFE070000D6
:106C4000002A00D160E10A0002434DD04A465C07A9
:106C5000D20822438024DB082403234207D0CE0835
:106C6000264204D15D463300C20849070A43510F4A
:106C7000D200D20849070A431100194300D1C8E1E4
:106C8000802109030B431B03D5491B0BDAE6D549C9
:106C9000B61A0B409846B5E6200000F083FA0200D1
:106CA00018321F2A00DC8FE62300083883400024B6
:106CB00092E608430200501E82416DE6CA4C721CE7
:106CC000224200D0ADE04A461A43002EB8D1002A35
:106CD00000D158E10A00024300D059E14A46590761
:106CE000D2080A43DB0886E74A465907D2080A4316
:106CF000DB08C1E7BA4DAA4200D11EE180252D0470
:106D00002B436446382C5DDC1F2C00DDD0E02025B1
:106D100067462D1B4E461C00FE40AC4034434E4699
:106D2000AE403500FB406E1EB541C91A2C434EE003
:106D30004A46141AA1459241524290465F1A3A00BF
:106D40004746D21B9046120200D58BE042462243B2
:106D500000D030E6002300254DE74A465907D20807
:106D60000A43DB0844E742469E4B61081A40130081
:106D7000012214400C43DA075B089846144341E6AD
:106D80001A001F3EF2401600202903D04022511A5B
:106D90008B401C43621E94410023344398460026D6
:106DA0001DE70C00203AD44022006446202C04D079
:106DB00040273F1BB940084380464446611E8C4132
:106DC0002243E9E54C4623431C00631E9C41041BFF
:106DD000A0429B415B42CB1A98465D461600E2E515
:106DE0004E461E4300D1AEE0661E012C00D1FDE0F0
:106DF0007B4FBC4200D107E1B4469BE664462022AB
:106E0000121B0C00944007009040A0466446421EAE
:106E100090416246E7404446D1403C4304435B18FE
:106E2000F3E66F4CA24200D1D5E048445B184845D8
:106E3000894149425B18DC0740085B089846160008
:106E40000443CCE6002A00D082E00A00024340D18D
:106E5000802300251B0313E74B07C2081A435D4636
:106E6000CB08C5E64A46841AA0429241CB1A524248
:106E70009B1A98465D469EE54A465907D2080A4342
:106E8000DB08F9E64A46141AA14592415B1A5242C0
:106E90009B1A9846012686E54A465907D2080A43B6
:106EA000DB08A5E64C4623431C00631E9C415BE6C1
:106EB00065461E00203DEE40202C05D040252D1BB0
:106EC000AB404C461C43A2465446631E9C4134438F
:106ED0007DE74B07C2081A435D46CB08CCE60A00A3
:106EE000024300D136E74B07C2081A435D46CB0880
:106EF00081E64A46841AA0429241CB1A52429B1A1A
:106F000098465D4601264EE54B07C2081A43CB085A
:106F1000B2E64A46141AA14592415F1A5242BA1A81
:106F2000904612026BD54A46841AA0429241CB1A6F
:106F300052429B1A98465D4664E54B07C2081A43C5
:106F40005D46CB0898E64B07C2081A43CB084FE6CC
:106F50000A00024390D04A465C07D20814438022BC
:106F6000DB081203134208D0CE08164205D1C00830
:106F70004907084304005D463300610FE2004907FA
:106F8000D2080A4378E64B07C2081A43CB0832E618
:106F900048445B18484592419846524290444346C3
:106FA00004001B0200D41AE642460E4B01261A408A
:106FB000904614E666461F00203EF740202C05D080
:106FC0004026361BB3404C461C43A2465446631E23
:106FD0009C413C43C8E511000023002232E5C04635
:106FE000FF070000FFFF7FFFFE0700004A4614185E
:106FF000844292415B18984652429044E9E54246E9
:10700000224300D1A6E6EAE54B07C2081A43CB08A3
:1070100032E600220149130014E5C046FF070000D4
:1070200070B505000C480C03160049001A035B00FC
:10703000240B490D120B5B0D814208D0064900203C
:107040008B4203D132431000421E904170BD01209B
:107050002C43FBD1F2E7C046FF0700000A0030B521
:10706000134C530009030500090B00205B0DD20FE0
:10707000A34204DD0F48834202DD0F4BD01830BD20
:107080008020400301430D48C01A1F2808DD0C482A
:10709000C31AD9400B005842002AF0D11800EEE77D
:1070A000084CC540A446634499400B002B43F2E7CB
:1070B000FE0300001D040000FFFFFF7F33040000FB
:1070C00013040000EDFBFFFF10B5041E10D000F00C
:1070D00069F80F4B1B1A0A2811DC0B222100121A27
:1070E000D14015300A035B058440120B5B0D01E0B3
:1070F000002300221B0513432000190010BD2200AD
:107100000B3882405B0512030024120B5B0DF1E784
:107110001E04000070B543004602C40FFE201B0E83
:10712000591C750A08420CD0E022920094466D0763
:10713000360B63441B053343E4072343280019003F
:1071400070BD002B14D1002D1BD0280000F02AF8B0
:107150000A281CDC0B232A001B1ADA400300153313
:107160009D400E4B12031B1A5B05160B5B0DE1E7EE
:10717000002D09D0320B80263603094B6D071643CC
:10718000D8E700230026D5E70026054BD2E7030009
:107190002A000B3B9A400025E3E7C0468903000024
:1071A000FF0700001C2101231B04984201D3000C9F
:1071B00010391B0A984201D3000A08391B0998426A
:1071C00001D30009043902A2105C40187047C04680
:1071D00004030202010101010000000000000000A0
:1071E00030B514001A00094B05001B6885B0D8683B
:1071F000074B002C01D1074B1C00019300912B0081
:107200000549029400F00AF801F030F884000020EB
:107210007CA50000659E000089A500000EB403B5A2
:10722000010003AB044804CB0068019300F070F93F
:1072300002B008BC03B018478400002070B50026D7
:107240000C4D0D4C641BA410A64209D1002602F07F
:10725000FDFD0A4D0A4C641BA410A64205D170BD69
:10726000B300EB5898470136EEE7B300EB58984768
:107270000136F2E75402002054020020540200209C
:107280006802002010B5034B0A000100186800F0E6
:1072900073F810BD8400002010B5034B010018687E
:1072A00000F0B0F810BDC0468400002010B5034BBC
:1072B0000100186800F016F810BDC04684000020D8
:1072C000002310B59A4200D110BDCC5CC4540133E8
:1072D000F8E703008218934200D170471970013318
:1072E000F9E7000070B50500002910D00C1F2368D5
:1072F000002B00DAE418280002F090F81D4A136809
:10730000002B05D163601460280002F08FF870BD77
:10731000A34208D9216860188342F3D118685B68DA
:1073200041182160EEE71A005B68002B01D0A342F0
:10733000F9D911685018A0420BD1206809185018CB
:1073400011608342E0D118685B6841181160536096
:10735000DAE7A04202D90C232B60D5E72168601838
:10736000834203D118685B684118216063605460F0
:10737000CAE7C0461C0E0020F8B54B1E06000F00E1
:107380001500194202D000242000F8BD082900D2BF
:107390000827042D00D204250323390003359D431B
:1073A00008393000491900F02DF80028EBD00438D6
:1073B0000368002B00DAC018F91C41187C420C400D
:1073C000011D631A8C420AD0C7180B2B17D902680B
:1073D000D21A3A6003603000FFF784FF38002A00B9
:1073E00003680C32C118A2189142CDD961190A1A4A
:1073F0009B1A0260300008C1FFF774FFC4E75B42CC
:107400003B60ECE7F8B50323CD1C9D43083506002F
:107410000C2D1FD20C25A9421ED8300001F0FEFF12
:1074200025490A681400002C1AD1244F3B68002B10
:1074300004D12100300000F029FE3860290030001E
:1074400000F024FE431C2BD10C233000336001F0EC
:10745000EDFF03E0002DDEDA0C2333600020F8BDE1
:1074600023685B1B19D40B2B03D92360E418256018
:1074700003E06368A2420ED10B60300001F0D6FF3A
:10748000200007220B30231D9043C21A9842E6D0F9
:107490001B1AA350E3E75360EFE722006468C2E7DA
:1074A0000323C41C9C43A042E1D0211A300000F009
:1074B000EDFD431CDBD1C7E71C0E0020200E002091
:1074C000936810B5013B9360002B04DA9469A342E2
:1074D00007DB0A2905D01368581C106019700800D2
:1074E00010BD00F0F5FD0100F9E7F8B506000F004A
:1074F0001400D518AC4201D1002007E021783A00F1
:107500003000FFF7DDFF0134431CF3D1F8BD00006C
:10751000F0B5A1B006000C001F000392002804D0B3
:107520008369002B01D101F047FE8E4B9C421CD198
:107530007468636EDB0705D4A3899B0502D4A06D34
:1075400001F0DFFEA3891B0702D52369002B1DD1A3
:107550002100300000F012FE002817D0636EDB0718
:107560000DD50120404221B0F0BD7F4B9C4201D19E
:10757000B468DEE77D4B9C42DBD1F468D9E7A38990
:107580009B05EED4A06D01F0BDFEEAE7002308AD37
:107590006B6120336B761033AB760797039F3B7894
:1075A000002B01D0252B4ED1039BFB1A0593039B87
:1075B0009F420DD0059B21003000039AFFF795FFF5
:1075C000431C00D1B5E06A69059B944663446B6136
:1075D0003B78002B00D1ACE001227B1C03930023FD
:1075E00052426A6004A9543252182B60EB60AB60BF
:1075F0001370AB65039B052219785D4801F002FF0B
:10760000039B5F1C002820D12A68D30604D553238E
:1076100004A95B1820211970130704D5532304A96A
:107620005B182B211970039B1B782A2B16D0002185
:10763000EB68039F3A78781C303A8446092A4FD980
:10764000002911D117E00137A9E7494B2A68C01A70
:107650000123834013432B600397CBE7079B191D3E
:107660001B680791002B01DB0B9304E05B42EB608E
:10767000022313432B603B782E2B0AD17B782A2BD5
:1076800037D1079B02371A1D1B680792002B2DDB91
:10769000099303223978374801F0B4FE002807D057
:1076A000344B2A68C01A40238340134301372B60B0
:1076B00039787B1C062230480393297601F0A2FE1C
:1076C000002845D02D4B002B27D10722079B0733DD
:1076D0009343083307936B69049A9B186B615DE7CA
:1076E0000A214B4367469B180939A3E701235B42F4
:1076F000CEE700231A0001376B603978781C3039E7
:107700008446092903D9002BC3D00992C1E70A2373
:107710005A4367465218093BEFE707AB0093220034
:1077200029003000164B00F0D7F80490049B013379
:10773000D1D1636EDB0705D4A3899B0502D4A06D6C
:1077400001F0E0FDA3895B0600D50AE70D980AE782
:1077500007AB0093220029003000094B00F07AFBB0
:10776000E3E7C04628A7000048A7000008A70000DC
:10777000BCA50000C2A50000C6A50000D978000085
:10778000EB740000F0B51E00002314008BB09E4285
:1077900004DA8021090673181E002D23129A149F03
:1077A0001370202303229F43462F07D03B00453B05
:1077B00059424B411099013ACB18109309AB0493ED
:1077C00008AB0393139B00920293109B220001933A
:1077D000330000F0DDFD0500472F02D1119BDB07D0
:1077E00028D5109BEB180793462F14D12B78302BFC
:1077F0000CD10022002320003100FDF705FD0028F8
:1078000004D10123109A9B1A139A1360139B079AB1
:107810001B68D31807930022002320003100FDF7D6
:10782000F3FC002801D0079B09933022099B07999C
:107830008B4206D32800099B159A5B1B13600BB083
:10784000F0BD591C09911A70F0E7F0B5831C87B0A0
:10785000039305000C002B230270002901DA4C422F
:1078600002336B70092C31DD0A2704ABDE1D2000CA
:1078700039000196FDF7B2FC013E30312000317035
:1078800039000294FDF7C4FB029B0400632BEEDC7D
:10789000019B30349A1E13000399147004A807301A
:1078A00098420ED804AB073300209A4204D804ABA8
:1078B0000930C018019BC01A039B1818401B07B061
:1078C000F0BD1878013308700131E7E73023E41880
:1078D000AB70281DEC70F1E7F0B595B00C00089284
:1078E0001A9D0993070001F007FD036818000B9328
:1078F00000F0E6FB00231293237E07221E0023687C
:107900000D900C930C992B68C90547D59B18934390
:107910001A0008322A601A685B68A264E3640122D4
:10792000A36CE56C0A936B005B080E930A98A84B56
:107930000E995242FFF774FB002831D10122A44B6B
:107940000A980E995242FDF76FFC002828D10022B8
:10795000002329000A98FDF75DFC002803D02300CE
:107960002D2243331A709B4D472E00D99A4D032385
:107970000C9A236101339A43002322600A93099BE6
:10798000210000933800089B13AA00F0F3F9431C70
:1079900000D09EE00120404215B0F0BD0733B6E7AD
:1079A0000A9A2B0010002900FFF73AFB00280AD0A2
:1079B000002D03DA23002D2243331A70874D472E02
:1079C000D5D9874DD3E720223100636891430E91CA
:1079D0005A1C47D10733636080230C9ADB001343A2
:1079E0000022069212AA059211AA0392232208A944
:1079F00023600193636852180292009338002B00B1
:107A00000A9A0496FFF7BEFE0E9B05001199472BBC
:107A100008D1CB1C02DB6368994246DD3300023B90
:107A2000DBB21E00652E24D8200032000139503010
:107A30001191FFF70AFF129A0A9013182361012A85
:107A400002DC2268D20701D501332361232308AA6F
:107A50009B181B78002B00D191E723002D22433384
:107A60001A708CE70E9A472AB6D1002BB4D1013395
:107A7000B1E7662E1BD1636800290DDD2161002B63
:107A800002D12268D20702D5013359182161119B16
:107A9000A36500230A93D9E7002B03D101222168B3
:107AA000114200D09A1C2261F1E767231E00119B4E
:107AB000129A934206DB22682361D207E7D501338D
:107AC0002361E4E70121002B01DC4918C91A52188F
:107AD000E9E72268530508D423692A003800089989
